{
	"contracts/Donation.sol": {
		"Donation": {
			"abi": [
				{
					"inputs": [],
					"stateMutability": "nonpayable",
					"type": "constructor"
				},
				{
					"anonymous": false,
					"inputs": [
						{
							"indexed": true,
							"internalType": "address",
							"name": "donor",
							"type": "address"
						},
						{
							"indexed": false,
							"internalType": "uint256",
							"name": "amount",
							"type": "uint256"
						}
					],
					"name": "Donated",
					"type": "event"
				},
				{
					"anonymous": false,
					"inputs": [
						{
							"indexed": true,
							"internalType": "address",
							"name": "to",
							"type": "address"
						},
						{
							"indexed": false,
							"internalType": "uint256",
							"name": "amount",
							"type": "uint256"
						}
					],
					"name": "Withdrawn",
					"type": "event"
				},
				{
					"stateMutability": "payable",
					"type": "fallback"
				},
				{
					"inputs": [],
					"name": "donate",
					"outputs": [],
					"stateMutability": "payable",
					"type": "function"
				},
				{
					"inputs": [
						{
							"internalType": "address",
							"name": "",
							"type": "address"
						}
					],
					"name": "donated",
					"outputs": [
						{
							"internalType": "uint256",
							"name": "",
							"type": "uint256"
						}
					],
					"stateMutability": "view",
					"type": "function"
				},
				{
					"inputs": [
						{
							"internalType": "uint256",
							"name": "index",
							"type": "uint256"
						}
					],
					"name": "getGift",
					"outputs": [
						{
							"internalType": "address",
							"name": "donor",
							"type": "address"
						},
						{
							"internalType": "uint256",
							"name": "amount",
							"type": "uint256"
						},
						{
							"internalType": "uint256",
							"name": "timestamp",
							"type": "uint256"
						}
					],
					"stateMutability": "view",
					"type": "function"
				},
				{
					"inputs": [
						{
							"internalType": "uint256",
							"name": "",
							"type": "uint256"
						}
					],
					"name": "gifts",
					"outputs": [
						{
							"internalType": "address",
							"name": "donor",
							"type": "address"
						},
						{
							"internalType": "uint256",
							"name": "amount",
							"type": "uint256"
						},
						{
							"internalType": "uint256",
							"name": "timestamp",
							"type": "uint256"
						}
					],
					"stateMutability": "view",
					"type": "function"
				},
				{
					"inputs": [],
					"name": "owner",
					"outputs": [
						{
							"internalType": "address",
							"name": "",
							"type": "address"
						}
					],
					"stateMutability": "view",
					"type": "function"
				},
				{
					"inputs": [],
					"name": "totalGifts",
					"outputs": [
						{
							"internalType": "uint256",
							"name": "",
							"type": "uint256"
						}
					],
					"stateMutability": "view",
					"type": "function"
				},
				{
					"inputs": [
						{
							"internalType": "address",
							"name": "_newOwner",
							"type": "address"
						}
					],
					"name": "transferOwnership",
					"outputs": [],
					"stateMutability": "nonpayable",
					"type": "function"
				},
				{
					"inputs": [
						{
							"internalType": "address payable",
							"name": "_to",
							"type": "address"
						}
					],
					"name": "withdraw",
					"outputs": [],
					"stateMutability": "nonpayable",
					"type": "function"
				},
				{
					"stateMutability": "payable",
					"type": "receive"
				}
			],
			"devdoc": {
				"kind": "dev",
				"methods": {},
				"version": 1
			},
			"evm": {
				"assembly": "    /* \"contracts/Donation.sol\":61:2061  contract Donation {... */\n  mstore(0x40, 0x80)\n    /* \"contracts/Donation.sol\":527:578  constructor() {... */\n  callvalue\n  dup1\n  iszero\n  tag_1\n  jumpi\n  revert(0x00, 0x00)\ntag_1:\n  pop\n    /* \"contracts/Donation.sol\":560:570  msg.sender */\n  caller\n    /* \"contracts/Donation.sol\":552:557  owner */\n  0x00\n  0x00\n    /* \"contracts/Donation.sol\":552:570  owner = msg.sender */\n  0x0100\n  exp\n  dup2\n  sload\n  dup2\n  0xffffffffffffffffffffffffffffffffffffffff\n  mul\n  not\n  and\n  swap1\n  dup4\n  0xffffffffffffffffffffffffffffffffffffffff\n  and\n  mul\n  or\n  swap1\n  sstore\n  pop\n    /* \"contracts/Donation.sol\":61:2061  contract Donation {... */\n  dataSize(sub_0)\n  dup1\n  dataOffset(sub_0)\n  0x00\n  codecopy\n  0x00\n  return\nstop\n\nsub_0: assembly {\n        /* \"contracts/Donation.sol\":61:2061  contract Donation {... */\n      mstore(0x40, 0x80)\n      jumpi(tag_1, lt(calldatasize, 0x04))\n      shr(0xe0, calldataload(0x00))\n      dup1\n      0xe4fb5155\n      gt\n      tag_11\n      jumpi\n      dup1\n      0xe4fb5155\n      eq\n      tag_7\n      jumpi\n      dup1\n      0xed88c68e\n      eq\n      tag_8\n      jumpi\n      dup1\n      0xf2fde38b\n      eq\n      tag_9\n      jumpi\n      dup1\n      0xfb690dcc\n      eq\n      tag_10\n      jumpi\n      jump(tag_2)\n    tag_11:\n      dup1\n      0x51cff8d9\n      eq\n      tag_3\n      jumpi\n      dup1\n      0x8da5cb5b\n      eq\n      tag_4\n      jumpi\n      dup1\n      0xbf6713f6\n      eq\n      tag_5\n      jumpi\n      dup1\n      0xd6065935\n      eq\n      tag_6\n      jumpi\n      jump(tag_2)\n    tag_1:\n      jumpi(tag_2, calldatasize)\n        /* \"contracts/Donation.sol\":665:695  _record(msg.sender, msg.value) */\n      tag_14\n        /* \"contracts/Donation.sol\":673:683  msg.sender */\n      caller\n        /* \"contracts/Donation.sol\":685:694  msg.value */\n      callvalue\n        /* \"contracts/Donation.sol\":665:672  _record */\n      tag_15\n        /* \"contracts/Donation.sol\":665:695  _record(msg.sender, msg.value) */\n      jump\t// in\n    tag_14:\n        /* \"contracts/Donation.sol\":61:2061  contract Donation {... */\n      stop\n    tag_2:\n        /* \"contracts/Donation.sol\":785:815  _record(msg.sender, msg.value) */\n      tag_18\n        /* \"contracts/Donation.sol\":793:803  msg.sender */\n      caller\n        /* \"contracts/Donation.sol\":805:814  msg.value */\n      callvalue\n        /* \"contracts/Donation.sol\":785:792  _record */\n      tag_15\n        /* \"contracts/Donation.sol\":785:815  _record(msg.sender, msg.value) */\n      jump\t// in\n    tag_18:\n        /* \"contracts/Donation.sol\":61:2061  contract Donation {... */\n      stop\n        /* \"contracts/Donation.sol\":1614:1890  function withdraw(address payable _to) external onlyOwner {... */\n    tag_3:\n      callvalue\n      dup1\n      iszero\n      tag_19\n      jumpi\n      revert(0x00, 0x00)\n    tag_19:\n      pop\n      tag_20\n      0x04\n      dup1\n      calldatasize\n      sub\n      dup2\n      add\n      swap1\n      tag_21\n      swap2\n      swap1\n      tag_22\n      jump\t// in\n    tag_21:\n      tag_23\n      jump\t// in\n    tag_20:\n      stop\n        /* \"contracts/Donation.sol\":86:106  address public owner */\n    tag_4:\n      callvalue\n      dup1\n      iszero\n      tag_24\n      jumpi\n      revert(0x00, 0x00)\n    tag_24:\n      pop\n      tag_25\n      tag_26\n      jump\t// in\n    tag_25:\n      mload(0x40)\n      tag_27\n      swap2\n      swap1\n      tag_28\n      jump\t// in\n    tag_27:\n      mload(0x40)\n      dup1\n      swap2\n      sub\n      swap1\n      return\n        /* \"contracts/Donation.sol\":1316:1606  function getGift(uint256 index)... */\n    tag_5:\n      callvalue\n      dup1\n      iszero\n      tag_29\n      jumpi\n      revert(0x00, 0x00)\n    tag_29:\n      pop\n      tag_30\n      0x04\n      dup1\n      calldatasize\n      sub\n      dup2\n      add\n      swap1\n      tag_31\n      swap2\n      swap1\n      tag_32\n      jump\t// in\n    tag_31:\n      tag_33\n      jump\t// in\n    tag_30:\n      mload(0x40)\n      tag_34\n      swap4\n      swap3\n      swap2\n      swap1\n      tag_35\n      jump\t// in\n    tag_34:\n      mload(0x40)\n      dup1\n      swap2\n      sub\n      swap1\n      return\n        /* \"contracts/Donation.sol\":220:239  Gift[] public gifts */\n    tag_6:\n      callvalue\n      dup1\n      iszero\n      tag_36\n      jumpi\n      revert(0x00, 0x00)\n    tag_36:\n      pop\n      tag_37\n      0x04\n      dup1\n      calldatasize\n      sub\n      dup2\n      add\n      swap1\n      tag_38\n      swap2\n      swap1\n      tag_32\n      jump\t// in\n    tag_38:\n      tag_39\n      jump\t// in\n    tag_37:\n      mload(0x40)\n      tag_40\n      swap4\n      swap3\n      swap2\n      swap1\n      tag_35\n      jump\t// in\n    tag_40:\n      mload(0x40)\n      dup1\n      swap2\n      sub\n      swap1\n      return\n        /* \"contracts/Donation.sol\":1216:1308  function totalGifts() external view returns (uint256) {... */\n    tag_7:\n      callvalue\n      dup1\n      iszero\n      tag_41\n      jumpi\n      revert(0x00, 0x00)\n    tag_41:\n      pop\n      tag_42\n      tag_43\n      jump\t// in\n    tag_42:\n      mload(0x40)\n      tag_44\n      swap2\n      swap1\n      tag_45\n      jump\t// in\n    tag_44:\n      mload(0x40)\n      dup1\n      swap2\n      sub\n      swap1\n      return\n        /* \"contracts/Donation.sol\":864:999  function donate() external payable {... */\n    tag_8:\n      tag_46\n      tag_47\n      jump\t// in\n    tag_46:\n      stop\n        /* \"contracts/Donation.sol\":1898:2058  function transferOwnership(address _newOwner) external onlyOwner {... */\n    tag_9:\n      callvalue\n      dup1\n      iszero\n      tag_48\n      jumpi\n      revert(0x00, 0x00)\n    tag_48:\n      pop\n      tag_49\n      0x04\n      dup1\n      calldatasize\n      sub\n      dup2\n      add\n      swap1\n      tag_50\n      swap2\n      swap1\n      tag_51\n      jump\t// in\n    tag_50:\n      tag_52\n      jump\t// in\n    tag_49:\n      stop\n        /* \"contracts/Donation.sol\":246:288  mapping(address => uint256) public donated */\n    tag_10:\n      callvalue\n      dup1\n      iszero\n      tag_53\n      jumpi\n      revert(0x00, 0x00)\n    tag_53:\n      pop\n      tag_54\n      0x04\n      dup1\n      calldatasize\n      sub\n      dup2\n      add\n      swap1\n      tag_55\n      swap2\n      swap1\n      tag_51\n      jump\t// in\n    tag_55:\n      tag_56\n      jump\t// in\n    tag_54:\n      mload(0x40)\n      tag_57\n      swap2\n      swap1\n      tag_45\n      jump\t// in\n    tag_57:\n      mload(0x40)\n      dup1\n      swap2\n      sub\n      swap1\n      return\n        /* \"contracts/Donation.sol\":1007:1208  function _record(address _from, uint256 _amount) internal {... */\n    tag_15:\n        /* \"contracts/Donation.sol\":1076:1081  gifts */\n      0x01\n        /* \"contracts/Donation.sol\":1087:1124  Gift(_from, _amount, block.timestamp) */\n      mload(0x40)\n      dup1\n      0x60\n      add\n      0x40\n      mstore\n      dup1\n        /* \"contracts/Donation.sol\":1092:1097  _from */\n      dup5\n        /* \"contracts/Donation.sol\":1087:1124  Gift(_from, _amount, block.timestamp) */\n      0xffffffffffffffffffffffffffffffffffffffff\n      and\n      dup2\n      mstore\n      0x20\n      add\n        /* \"contracts/Donation.sol\":1099:1106  _amount */\n      dup4\n        /* \"contracts/Donation.sol\":1087:1124  Gift(_from, _amount, block.timestamp) */\n      dup2\n      mstore\n      0x20\n      add\n        /* \"contracts/Donation.sol\":1108:1123  block.timestamp */\n      timestamp\n        /* \"contracts/Donation.sol\":1087:1124  Gift(_from, _amount, block.timestamp) */\n      dup2\n      mstore\n      pop\n        /* \"contracts/Donation.sol\":1076:1125  gifts.push(Gift(_from, _amount, block.timestamp)) */\n      swap1\n      dup1\n      0x01\n      dup2\n      sload\n      add\n      dup1\n      dup3\n      sstore\n      dup1\n      swap2\n      pop\n      pop\n      0x01\n      swap1\n      sub\n      swap1\n      0x00\n      mstore\n      keccak256(0x00, 0x20)\n      swap1\n      0x03\n      mul\n      add\n      0x00\n      swap1\n      swap2\n      swap1\n      swap2\n      swap1\n      swap2\n      pop\n      0x00\n      dup3\n      add\n      mload\n      dup2\n      0x00\n      add\n      exp(0x0100, 0x00)\n      dup2\n      sload\n      dup2\n      0xffffffffffffffffffffffffffffffffffffffff\n      mul\n      not\n      and\n      swap1\n      dup4\n      0xffffffffffffffffffffffffffffffffffffffff\n      and\n      mul\n      or\n      swap1\n      sstore\n      pop\n      0x20\n      dup3\n      add\n      mload\n      dup2\n      0x01\n      add\n      sstore\n      0x40\n      dup3\n      add\n      mload\n      dup2\n      0x02\n      add\n      sstore\n      pop\n      pop\n        /* \"contracts/Donation.sol\":1154:1161  _amount */\n      dup1\n        /* \"contracts/Donation.sol\":1136:1143  donated */\n      0x02\n        /* \"contracts/Donation.sol\":1136:1150  donated[_from] */\n      0x00\n        /* \"contracts/Donation.sol\":1144:1149  _from */\n      dup5\n        /* \"contracts/Donation.sol\":1136:1150  donated[_from] */\n      0xffffffffffffffffffffffffffffffffffffffff\n      and\n      0xffffffffffffffffffffffffffffffffffffffff\n      and\n      dup2\n      mstore\n      0x20\n      add\n      swap1\n      dup2\n      mstore\n      0x20\n      add\n      0x00\n      keccak256\n      0x00\n        /* \"contracts/Donation.sol\":1136:1161  donated[_from] += _amount */\n      dup3\n      dup3\n      sload\n      tag_60\n      swap2\n      swap1\n      tag_61\n      jump\t// in\n    tag_60:\n      swap3\n      pop\n      pop\n      dup2\n      swap1\n      sstore\n      pop\n        /* \"contracts/Donation.sol\":1185:1190  _from */\n      dup2\n        /* \"contracts/Donation.sol\":1177:1200  Donated(_from, _amount) */\n      0xffffffffffffffffffffffffffffffffffffffff\n      and\n      0x2a01595cddf097c90216094025db714da3f4e5bd8877b56ba86a24ecead8e543\n        /* \"contracts/Donation.sol\":1192:1199  _amount */\n      dup3\n        /* \"contracts/Donation.sol\":1177:1200  Donated(_from, _amount) */\n      mload(0x40)\n      tag_62\n      swap2\n      swap1\n      tag_45\n      jump\t// in\n    tag_62:\n      mload(0x40)\n      dup1\n      swap2\n      sub\n      swap1\n      log2\n        /* \"contracts/Donation.sol\":1007:1208  function _record(address _from, uint256 _amount) internal {... */\n      pop\n      pop\n      jump\t// out\n        /* \"contracts/Donation.sol\":1614:1890  function withdraw(address payable _to) external onlyOwner {... */\n    tag_23:\n        /* \"contracts/Donation.sol\":470:475  owner */\n      0x00\n      0x00\n      swap1\n      sload\n      swap1\n      0x0100\n      exp\n      swap1\n      div\n      0xffffffffffffffffffffffffffffffffffffffff\n      and\n        /* \"contracts/Donation.sol\":456:475  msg.sender == owner */\n      0xffffffffffffffffffffffffffffffffffffffff\n      and\n        /* \"contracts/Donation.sol\":456:466  msg.sender */\n      caller\n        /* \"contracts/Donation.sol\":456:475  msg.sender == owner */\n      0xffffffffffffffffffffffffffffffffffffffff\n      and\n      eq\n        /* \"contracts/Donation.sol\":448:499  require(msg.sender == owner, \"only owner can call\") */\n      tag_64\n      jumpi\n      mload(0x40)\n      0x08c379a000000000000000000000000000000000000000000000000000000000\n      dup2\n      mstore\n      0x04\n      add\n      tag_65\n      swap1\n      tag_66\n      jump\t// in\n    tag_65:\n      mload(0x40)\n      dup1\n      swap2\n      sub\n      swap1\n      revert\n    tag_64:\n        /* \"contracts/Donation.sol\":1683:1694  uint256 bal */\n      0x00\n        /* \"contracts/Donation.sol\":1697:1718  address(this).balance */\n      selfbalance\n        /* \"contracts/Donation.sol\":1683:1718  uint256 bal = address(this).balance */\n      swap1\n      pop\n        /* \"contracts/Donation.sol\":1743:1744  0 */\n      0x00\n        /* \"contracts/Donation.sol\":1737:1740  bal */\n      dup2\n        /* \"contracts/Donation.sol\":1737:1744  bal > 0 */\n      gt\n        /* \"contracts/Donation.sol\":1729:1757  require(bal > 0, \"no funds\") */\n      tag_68\n      jumpi\n      mload(0x40)\n      0x08c379a000000000000000000000000000000000000000000000000000000000\n      dup2\n      mstore\n      0x04\n      add\n      tag_69\n      swap1\n      tag_70\n      jump\t// in\n    tag_69:\n      mload(0x40)\n      dup1\n      swap2\n      sub\n      swap1\n      revert\n    tag_68:\n        /* \"contracts/Donation.sol\":1769:1776  bool ok */\n      0x00\n        /* \"contracts/Donation.sol\":1782:1785  _to */\n      dup3\n        /* \"contracts/Donation.sol\":1782:1790  _to.call */\n      0xffffffffffffffffffffffffffffffffffffffff\n      and\n        /* \"contracts/Donation.sol\":1798:1801  bal */\n      dup3\n        /* \"contracts/Donation.sol\":1782:1806  _to.call{value: bal}(\"\") */\n      mload(0x40)\n      tag_71\n      swap1\n      tag_72\n      jump\t// in\n    tag_71:\n      0x00\n      mload(0x40)\n      dup1\n      dup4\n      sub\n      dup2\n      dup6\n      dup8\n      gas\n      call\n      swap3\n      pop\n      pop\n      pop\n      returndatasize\n      dup1\n      0x00\n      dup2\n      eq\n      tag_75\n      jumpi\n      mload(0x40)\n      swap2\n      pop\n      and(add(returndatasize, 0x3f), not(0x1f))\n      dup3\n      add\n      0x40\n      mstore\n      returndatasize\n      dup3\n      mstore\n      returndatasize\n      0x00\n      0x20\n      dup5\n      add\n      returndatacopy\n      jump(tag_74)\n    tag_75:\n      0x60\n      swap2\n      pop\n    tag_74:\n      pop\n        /* \"contracts/Donation.sol\":1768:1806  (bool ok, ) = _to.call{value: bal}(\"\") */\n      pop\n      swap1\n      pop\n        /* \"contracts/Donation.sol\":1825:1827  ok */\n      dup1\n        /* \"contracts/Donation.sol\":1817:1847  require(ok, \"transfer failed\") */\n      tag_76\n      jumpi\n      mload(0x40)\n      0x08c379a000000000000000000000000000000000000000000000000000000000\n      dup2\n      mstore\n      0x04\n      add\n      tag_77\n      swap1\n      tag_78\n      jump\t// in\n    tag_77:\n      mload(0x40)\n      dup1\n      swap2\n      sub\n      swap1\n      revert\n    tag_76:\n        /* \"contracts/Donation.sol\":1873:1876  _to */\n      dup3\n        /* \"contracts/Donation.sol\":1863:1882  Withdrawn(_to, bal) */\n      0xffffffffffffffffffffffffffffffffffffffff\n      and\n      0x7084f5476618d8e60b11ef0d7d3f06914655adb8793e28ff7f018d4c76d505d5\n        /* \"contracts/Donation.sol\":1878:1881  bal */\n      dup4\n        /* \"contracts/Donation.sol\":1863:1882  Withdrawn(_to, bal) */\n      mload(0x40)\n      tag_79\n      swap2\n      swap1\n      tag_45\n      jump\t// in\n    tag_79:\n      mload(0x40)\n      dup1\n      swap2\n      sub\n      swap1\n      log2\n        /* \"contracts/Donation.sol\":1672:1890  {... */\n      pop\n      pop\n        /* \"contracts/Donation.sol\":1614:1890  function withdraw(address payable _to) external onlyOwner {... */\n      pop\n      jump\t// out\n        /* \"contracts/Donation.sol\":86:106  address public owner */\n    tag_26:\n      0x00\n      0x00\n      swap1\n      sload\n      swap1\n      0x0100\n      exp\n      swap1\n      div\n      0xffffffffffffffffffffffffffffffffffffffff\n      and\n      dup2\n      jump\t// out\n        /* \"contracts/Donation.sol\":1316:1606  function getGift(uint256 index)... */\n    tag_33:\n        /* \"contracts/Donation.sol\":1398:1411  address donor */\n      0x00\n        /* \"contracts/Donation.sol\":1413:1427  uint256 amount */\n      0x00\n        /* \"contracts/Donation.sol\":1429:1446  uint256 timestamp */\n      0x00\n        /* \"contracts/Donation.sol\":1480:1485  gifts */\n      0x01\n        /* \"contracts/Donation.sol\":1480:1492  gifts.length */\n      dup1\n      sload\n      swap1\n      pop\n        /* \"contracts/Donation.sol\":1472:1477  index */\n      dup5\n        /* \"contracts/Donation.sol\":1472:1492  index < gifts.length */\n      lt\n        /* \"contracts/Donation.sol\":1464:1509  require(index < gifts.length, \"out of range\") */\n      tag_81\n      jumpi\n      mload(0x40)\n      0x08c379a000000000000000000000000000000000000000000000000000000000\n      dup2\n      mstore\n      0x04\n      add\n      tag_82\n      swap1\n      tag_83\n      jump\t// in\n    tag_82:\n      mload(0x40)\n      dup1\n      swap2\n      sub\n      swap1\n      revert\n    tag_81:\n        /* \"contracts/Donation.sol\":1520:1533  Gift memory g */\n      0x00\n        /* \"contracts/Donation.sol\":1536:1541  gifts */\n      0x01\n        /* \"contracts/Donation.sol\":1542:1547  index */\n      dup6\n        /* \"contracts/Donation.sol\":1536:1548  gifts[index] */\n      dup2\n      sload\n      dup2\n      lt\n      tag_84\n      jumpi\n      tag_85\n      tag_86\n      jump\t// in\n    tag_85:\n    tag_84:\n      swap1\n      0x00\n      mstore\n      keccak256(0x00, 0x20)\n      swap1\n      0x03\n      mul\n      add\n        /* \"contracts/Donation.sol\":1520:1548  Gift memory g = gifts[index] */\n      mload(0x40)\n      dup1\n      0x60\n      add\n      0x40\n      mstore\n      swap1\n      dup2\n      0x00\n      dup3\n      add\n      0x00\n      swap1\n      sload\n      swap1\n      0x0100\n      exp\n      swap1\n      div\n      0xffffffffffffffffffffffffffffffffffffffff\n      and\n      0xffffffffffffffffffffffffffffffffffffffff\n      and\n      0xffffffffffffffffffffffffffffffffffffffff\n      and\n      dup2\n      mstore\n      0x20\n      add\n      0x01\n      dup3\n      add\n      sload\n      dup2\n      mstore\n      0x20\n      add\n      0x02\n      dup3\n      add\n      sload\n      dup2\n      mstore\n      pop\n      pop\n      swap1\n      pop\n        /* \"contracts/Donation.sol\":1567:1568  g */\n      dup1\n        /* \"contracts/Donation.sol\":1567:1574  g.donor */\n      0x00\n      add\n      mload\n        /* \"contracts/Donation.sol\":1576:1577  g */\n      dup2\n        /* \"contracts/Donation.sol\":1576:1584  g.amount */\n      0x20\n      add\n      mload\n        /* \"contracts/Donation.sol\":1586:1587  g */\n      dup3\n        /* \"contracts/Donation.sol\":1586:1597  g.timestamp */\n      0x40\n      add\n      mload\n        /* \"contracts/Donation.sol\":1559:1598  return (g.donor, g.amount, g.timestamp) */\n      swap4\n      pop\n      swap4\n      pop\n      swap4\n      pop\n      pop\n        /* \"contracts/Donation.sol\":1316:1606  function getGift(uint256 index)... */\n      swap2\n      swap4\n      swap1\n      swap3\n      pop\n      jump\t// out\n        /* \"contracts/Donation.sol\":220:239  Gift[] public gifts */\n    tag_39:\n      0x01\n      dup2\n      dup2\n      sload\n      dup2\n      lt\n      tag_88\n      jumpi\n      0x00\n      dup1\n      revert\n    tag_88:\n      swap1\n      0x00\n      mstore\n      keccak256(0x00, 0x20)\n      swap1\n      0x03\n      mul\n      add\n      0x00\n      swap2\n      pop\n      swap1\n      pop\n      dup1\n      0x00\n      add\n      0x00\n      swap1\n      sload\n      swap1\n      0x0100\n      exp\n      swap1\n      div\n      0xffffffffffffffffffffffffffffffffffffffff\n      and\n      swap1\n      dup1\n      0x01\n      add\n      sload\n      swap1\n      dup1\n      0x02\n      add\n      sload\n      swap1\n      pop\n      dup4\n      jump\t// out\n        /* \"contracts/Donation.sol\":1216:1308  function totalGifts() external view returns (uint256) {... */\n    tag_43:\n        /* \"contracts/Donation.sol\":1261:1268  uint256 */\n      0x00\n        /* \"contracts/Donation.sol\":1288:1293  gifts */\n      0x01\n        /* \"contracts/Donation.sol\":1288:1300  gifts.length */\n      dup1\n      sload\n      swap1\n      pop\n        /* \"contracts/Donation.sol\":1281:1300  return gifts.length */\n      swap1\n      pop\n        /* \"contracts/Donation.sol\":1216:1308  function totalGifts() external view returns (uint256) {... */\n      swap1\n      jump\t// out\n        /* \"contracts/Donation.sol\":864:999  function donate() external payable {... */\n    tag_47:\n        /* \"contracts/Donation.sol\":930:931  0 */\n      0x00\n        /* \"contracts/Donation.sol\":918:927  msg.value */\n      callvalue\n        /* \"contracts/Donation.sol\":918:931  msg.value > 0 */\n      gt\n        /* \"contracts/Donation.sol\":910:950  require(msg.value > 0, \"send some CELO\") */\n      tag_92\n      jumpi\n      mload(0x40)\n      0x08c379a000000000000000000000000000000000000000000000000000000000\n      dup2\n      mstore\n      0x04\n      add\n      tag_93\n      swap1\n      tag_94\n      jump\t// in\n    tag_93:\n      mload(0x40)\n      dup1\n      swap2\n      sub\n      swap1\n      revert\n    tag_92:\n        /* \"contracts/Donation.sol\":961:991  _record(msg.sender, msg.value) */\n      tag_95\n        /* \"contracts/Donation.sol\":969:979  msg.sender */\n      caller\n        /* \"contracts/Donation.sol\":981:990  msg.value */\n      callvalue\n        /* \"contracts/Donation.sol\":961:968  _record */\n      tag_15\n        /* \"contracts/Donation.sol\":961:991  _record(msg.sender, msg.value) */\n      jump\t// in\n    tag_95:\n        /* \"contracts/Donation.sol\":864:999  function donate() external payable {... */\n      jump\t// out\n        /* \"contracts/Donation.sol\":1898:2058  function transferOwnership(address _newOwner) external onlyOwner {... */\n    tag_52:\n        /* \"contracts/Donation.sol\":470:475  owner */\n      0x00\n      0x00\n      swap1\n      sload\n      swap1\n      0x0100\n      exp\n      swap1\n      div\n      0xffffffffffffffffffffffffffffffffffffffff\n      and\n        /* \"contracts/Donation.sol\":456:475  msg.sender == owner */\n      0xffffffffffffffffffffffffffffffffffffffff\n      and\n        /* \"contracts/Donation.sol\":456:466  msg.sender */\n      caller\n        /* \"contracts/Donation.sol\":456:475  msg.sender == owner */\n      0xffffffffffffffffffffffffffffffffffffffff\n      and\n      eq\n        /* \"contracts/Donation.sol\":448:499  require(msg.sender == owner, \"only owner can call\") */\n      tag_97\n      jumpi\n      mload(0x40)\n      0x08c379a000000000000000000000000000000000000000000000000000000000\n      dup2\n      mstore\n      0x04\n      add\n      tag_98\n      swap1\n      tag_66\n      jump\t// in\n    tag_98:\n      mload(0x40)\n      dup1\n      swap2\n      sub\n      swap1\n      revert\n    tag_97:\n        /* \"contracts/Donation.sol\":2003:2004  0 */\n      0x00\n        /* \"contracts/Donation.sol\":1982:2005  _newOwner != address(0) */\n      0xffffffffffffffffffffffffffffffffffffffff\n      and\n        /* \"contracts/Donation.sol\":1982:1991  _newOwner */\n      dup2\n        /* \"contracts/Donation.sol\":1982:2005  _newOwner != address(0) */\n      0xffffffffffffffffffffffffffffffffffffffff\n      and\n      sub\n        /* \"contracts/Donation.sol\":1974:2022  require(_newOwner != address(0), \"zero address\") */\n      tag_100\n      jumpi\n      mload(0x40)\n      0x08c379a000000000000000000000000000000000000000000000000000000000\n      dup2\n      mstore\n      0x04\n      add\n      tag_101\n      swap1\n      tag_102\n      jump\t// in\n    tag_101:\n      mload(0x40)\n      dup1\n      swap2\n      sub\n      swap1\n      revert\n    tag_100:\n        /* \"contracts/Donation.sol\":2041:2050  _newOwner */\n      dup1\n        /* \"contracts/Donation.sol\":2033:2038  owner */\n      0x00\n      0x00\n        /* \"contracts/Donation.sol\":2033:2050  owner = _newOwner */\n      0x0100\n      exp\n      dup2\n      sload\n      dup2\n      0xffffffffffffffffffffffffffffffffffffffff\n      mul\n      not\n      and\n      swap1\n      dup4\n      0xffffffffffffffffffffffffffffffffffffffff\n      and\n      mul\n      or\n      swap1\n      sstore\n      pop\n        /* \"contracts/Donation.sol\":1898:2058  function transferOwnership(address _newOwner) external onlyOwner {... */\n      pop\n      jump\t// out\n        /* \"contracts/Donation.sol\":246:288  mapping(address => uint256) public donated */\n    tag_56:\n      mstore(0x20, 0x02)\n      dup1\n      0x00\n      mstore\n      keccak256(0x00, 0x40)\n      0x00\n      swap2\n      pop\n      swap1\n      pop\n      sload\n      dup2\n      jump\t// out\n        /* \"#utility.yul\":88:205   */\n    tag_104:\n        /* \"#utility.yul\":197:198   */\n      0x00\n        /* \"#utility.yul\":194:195   */\n      0x00\n        /* \"#utility.yul\":187:199   */\n      revert\n        /* \"#utility.yul\":334:460   */\n    tag_106:\n        /* \"#utility.yul\":371:378   */\n      0x00\n        /* \"#utility.yul\":411:453   */\n      0xffffffffffffffffffffffffffffffffffffffff\n        /* \"#utility.yul\":404:409   */\n      dup3\n        /* \"#utility.yul\":400:454   */\n      and\n        /* \"#utility.yul\":389:454   */\n      swap1\n      pop\n        /* \"#utility.yul\":334:460   */\n      swap2\n      swap1\n      pop\n      jump\t// out\n        /* \"#utility.yul\":466:570   */\n    tag_107:\n        /* \"#utility.yul\":511:518   */\n      0x00\n        /* \"#utility.yul\":540:564   */\n      tag_141\n        /* \"#utility.yul\":558:563   */\n      dup3\n        /* \"#utility.yul\":540:564   */\n      tag_106\n      jump\t// in\n    tag_141:\n        /* \"#utility.yul\":529:564   */\n      swap1\n      pop\n        /* \"#utility.yul\":466:570   */\n      swap2\n      swap1\n      pop\n      jump\t// out\n        /* \"#utility.yul\":576:714   */\n    tag_108:\n        /* \"#utility.yul\":657:689   */\n      tag_143\n        /* \"#utility.yul\":683:688   */\n      dup2\n        /* \"#utility.yul\":657:689   */\n      tag_107\n      jump\t// in\n    tag_143:\n        /* \"#utility.yul\":650:655   */\n      dup2\n        /* \"#utility.yul\":647:690   */\n      eq\n        /* \"#utility.yul\":637:708   */\n      tag_144\n      jumpi\n        /* \"#utility.yul\":704:705   */\n      0x00\n        /* \"#utility.yul\":701:702   */\n      0x00\n        /* \"#utility.yul\":694:706   */\n      revert\n        /* \"#utility.yul\":637:708   */\n    tag_144:\n        /* \"#utility.yul\":576:714   */\n      pop\n      jump\t// out\n        /* \"#utility.yul\":720:875   */\n    tag_109:\n        /* \"#utility.yul\":774:779   */\n      0x00\n        /* \"#utility.yul\":812:818   */\n      dup2\n        /* \"#utility.yul\":799:819   */\n      calldataload\n        /* \"#utility.yul\":790:819   */\n      swap1\n      pop\n        /* \"#utility.yul\":828:869   */\n      tag_146\n        /* \"#utility.yul\":863:868   */\n      dup2\n        /* \"#utility.yul\":828:869   */\n      tag_108\n      jump\t// in\n    tag_146:\n        /* \"#utility.yul\":720:875   */\n      swap3\n      swap2\n      pop\n      pop\n      jump\t// out\n        /* \"#utility.yul\":881:1226   */\n    tag_22:\n        /* \"#utility.yul\":948:954   */\n      0x00\n        /* \"#utility.yul\":997:999   */\n      0x20\n        /* \"#utility.yul\":985:994   */\n      dup3\n        /* \"#utility.yul\":976:983   */\n      dup5\n        /* \"#utility.yul\":972:995   */\n      sub\n        /* \"#utility.yul\":968:1000   */\n      slt\n        /* \"#utility.yul\":965:1084   */\n      iszero\n      tag_148\n      jumpi\n        /* \"#utility.yul\":1003:1082   */\n      tag_149\n      tag_104\n      jump\t// in\n    tag_149:\n        /* \"#utility.yul\":965:1084   */\n    tag_148:\n        /* \"#utility.yul\":1123:1124   */\n      0x00\n        /* \"#utility.yul\":1148:1209   */\n      tag_150\n        /* \"#utility.yul\":1201:1208   */\n      dup5\n        /* \"#utility.yul\":1192:1198   */\n      dup3\n        /* \"#utility.yul\":1181:1190   */\n      dup6\n        /* \"#utility.yul\":1177:1199   */\n      add\n        /* \"#utility.yul\":1148:1209   */\n      tag_109\n      jump\t// in\n    tag_150:\n        /* \"#utility.yul\":1138:1209   */\n      swap2\n      pop\n        /* \"#utility.yul\":1094:1219   */\n      pop\n        /* \"#utility.yul\":881:1226   */\n      swap3\n      swap2\n      pop\n      pop\n      jump\t// out\n        /* \"#utility.yul\":1232:1328   */\n    tag_110:\n        /* \"#utility.yul\":1269:1276   */\n      0x00\n        /* \"#utility.yul\":1298:1322   */\n      tag_152\n        /* \"#utility.yul\":1316:1321   */\n      dup3\n        /* \"#utility.yul\":1298:1322   */\n      tag_106\n      jump\t// in\n    tag_152:\n        /* \"#utility.yul\":1287:1322   */\n      swap1\n      pop\n        /* \"#utility.yul\":1232:1328   */\n      swap2\n      swap1\n      pop\n      jump\t// out\n        /* \"#utility.yul\":1334:1452   */\n    tag_111:\n        /* \"#utility.yul\":1421:1445   */\n      tag_154\n        /* \"#utility.yul\":1439:1444   */\n      dup2\n        /* \"#utility.yul\":1421:1445   */\n      tag_110\n      jump\t// in\n    tag_154:\n        /* \"#utility.yul\":1416:1419   */\n      dup3\n        /* \"#utility.yul\":1409:1446   */\n      mstore\n        /* \"#utility.yul\":1334:1452   */\n      pop\n      pop\n      jump\t// out\n        /* \"#utility.yul\":1458:1680   */\n    tag_28:\n        /* \"#utility.yul\":1551:1555   */\n      0x00\n        /* \"#utility.yul\":1589:1591   */\n      0x20\n        /* \"#utility.yul\":1578:1587   */\n      dup3\n        /* \"#utility.yul\":1574:1592   */\n      add\n        /* \"#utility.yul\":1566:1592   */\n      swap1\n      pop\n        /* \"#utility.yul\":1602:1673   */\n      tag_156\n        /* \"#utility.yul\":1670:1671   */\n      0x00\n        /* \"#utility.yul\":1659:1668   */\n      dup4\n        /* \"#utility.yul\":1655:1672   */\n      add\n        /* \"#utility.yul\":1646:1652   */\n      dup5\n        /* \"#utility.yul\":1602:1673   */\n      tag_111\n      jump\t// in\n    tag_156:\n        /* \"#utility.yul\":1458:1680   */\n      swap3\n      swap2\n      pop\n      pop\n      jump\t// out\n        /* \"#utility.yul\":1686:1763   */\n    tag_112:\n        /* \"#utility.yul\":1723:1730   */\n      0x00\n        /* \"#utility.yul\":1752:1757   */\n      dup2\n        /* \"#utility.yul\":1741:1757   */\n      swap1\n      pop\n        /* \"#utility.yul\":1686:1763   */\n      swap2\n      swap1\n      pop\n      jump\t// out\n        /* \"#utility.yul\":1769:1891   */\n    tag_113:\n        /* \"#utility.yul\":1842:1866   */\n      tag_159\n        /* \"#utility.yul\":1860:1865   */\n      dup2\n        /* \"#utility.yul\":1842:1866   */\n      tag_112\n      jump\t// in\n    tag_159:\n        /* \"#utility.yul\":1835:1840   */\n      dup2\n        /* \"#utility.yul\":1832:1867   */\n      eq\n        /* \"#utility.yul\":1822:1885   */\n      tag_160\n      jumpi\n        /* \"#utility.yul\":1881:1882   */\n      0x00\n        /* \"#utility.yul\":1878:1879   */\n      0x00\n        /* \"#utility.yul\":1871:1883   */\n      revert\n        /* \"#utility.yul\":1822:1885   */\n    tag_160:\n        /* \"#utility.yul\":1769:1891   */\n      pop\n      jump\t// out\n        /* \"#utility.yul\":1897:2036   */\n    tag_114:\n        /* \"#utility.yul\":1943:1948   */\n      0x00\n        /* \"#utility.yul\":1981:1987   */\n      dup2\n        /* \"#utility.yul\":1968:1988   */\n      calldataload\n        /* \"#utility.yul\":1959:1988   */\n      swap1\n      pop\n        /* \"#utility.yul\":1997:2030   */\n      tag_162\n        /* \"#utility.yul\":2024:2029   */\n      dup2\n        /* \"#utility.yul\":1997:2030   */\n      tag_113\n      jump\t// in\n    tag_162:\n        /* \"#utility.yul\":1897:2036   */\n      swap3\n      swap2\n      pop\n      pop\n      jump\t// out\n        /* \"#utility.yul\":2042:2371   */\n    tag_32:\n        /* \"#utility.yul\":2101:2107   */\n      0x00\n        /* \"#utility.yul\":2150:2152   */\n      0x20\n        /* \"#utility.yul\":2138:2147   */\n      dup3\n        /* \"#utility.yul\":2129:2136   */\n      dup5\n        /* \"#utility.yul\":2125:2148   */\n      sub\n        /* \"#utility.yul\":2121:2153   */\n      slt\n        /* \"#utility.yul\":2118:2237   */\n      iszero\n      tag_164\n      jumpi\n        /* \"#utility.yul\":2156:2235   */\n      tag_165\n      tag_104\n      jump\t// in\n    tag_165:\n        /* \"#utility.yul\":2118:2237   */\n    tag_164:\n        /* \"#utility.yul\":2276:2277   */\n      0x00\n        /* \"#utility.yul\":2301:2354   */\n      tag_166\n        /* \"#utility.yul\":2346:2353   */\n      dup5\n        /* \"#utility.yul\":2337:2343   */\n      dup3\n        /* \"#utility.yul\":2326:2335   */\n      dup6\n        /* \"#utility.yul\":2322:2344   */\n      add\n        /* \"#utility.yul\":2301:2354   */\n      tag_114\n      jump\t// in\n    tag_166:\n        /* \"#utility.yul\":2291:2354   */\n      swap2\n      pop\n        /* \"#utility.yul\":2247:2364   */\n      pop\n        /* \"#utility.yul\":2042:2371   */\n      swap3\n      swap2\n      pop\n      pop\n      jump\t// out\n        /* \"#utility.yul\":2377:2495   */\n    tag_115:\n        /* \"#utility.yul\":2464:2488   */\n      tag_168\n        /* \"#utility.yul\":2482:2487   */\n      dup2\n        /* \"#utility.yul\":2464:2488   */\n      tag_112\n      jump\t// in\n    tag_168:\n        /* \"#utility.yul\":2459:2462   */\n      dup3\n        /* \"#utility.yul\":2452:2489   */\n      mstore\n        /* \"#utility.yul\":2377:2495   */\n      pop\n      pop\n      jump\t// out\n        /* \"#utility.yul\":2501:2943   */\n    tag_35:\n        /* \"#utility.yul\":2650:2654   */\n      0x00\n        /* \"#utility.yul\":2688:2690   */\n      0x60\n        /* \"#utility.yul\":2677:2686   */\n      dup3\n        /* \"#utility.yul\":2673:2691   */\n      add\n        /* \"#utility.yul\":2665:2691   */\n      swap1\n      pop\n        /* \"#utility.yul\":2701:2772   */\n      tag_170\n        /* \"#utility.yul\":2769:2770   */\n      0x00\n        /* \"#utility.yul\":2758:2767   */\n      dup4\n        /* \"#utility.yul\":2754:2771   */\n      add\n        /* \"#utility.yul\":2745:2751   */\n      dup7\n        /* \"#utility.yul\":2701:2772   */\n      tag_111\n      jump\t// in\n    tag_170:\n        /* \"#utility.yul\":2782:2854   */\n      tag_171\n        /* \"#utility.yul\":2850:2852   */\n      0x20\n        /* \"#utility.yul\":2839:2848   */\n      dup4\n        /* \"#utility.yul\":2835:2853   */\n      add\n        /* \"#utility.yul\":2826:2832   */\n      dup6\n        /* \"#utility.yul\":2782:2854   */\n      tag_115\n      jump\t// in\n    tag_171:\n        /* \"#utility.yul\":2864:2936   */\n      tag_172\n        /* \"#utility.yul\":2932:2934   */\n      0x40\n        /* \"#utility.yul\":2921:2930   */\n      dup4\n        /* \"#utility.yul\":2917:2935   */\n      add\n        /* \"#utility.yul\":2908:2914   */\n      dup5\n        /* \"#utility.yul\":2864:2936   */\n      tag_115\n      jump\t// in\n    tag_172:\n        /* \"#utility.yul\":2501:2943   */\n      swap5\n      swap4\n      pop\n      pop\n      pop\n      pop\n      jump\t// out\n        /* \"#utility.yul\":2949:3171   */\n    tag_45:\n        /* \"#utility.yul\":3042:3046   */\n      0x00\n        /* \"#utility.yul\":3080:3082   */\n      0x20\n        /* \"#utility.yul\":3069:3078   */\n      dup3\n        /* \"#utility.yul\":3065:3083   */\n      add\n        /* \"#utility.yul\":3057:3083   */\n      swap1\n      pop\n        /* \"#utility.yul\":3093:3164   */\n      tag_174\n        /* \"#utility.yul\":3161:3162   */\n      0x00\n        /* \"#utility.yul\":3150:3159   */\n      dup4\n        /* \"#utility.yul\":3146:3163   */\n      add\n        /* \"#utility.yul\":3137:3143   */\n      dup5\n        /* \"#utility.yul\":3093:3164   */\n      tag_115\n      jump\t// in\n    tag_174:\n        /* \"#utility.yul\":2949:3171   */\n      swap3\n      swap2\n      pop\n      pop\n      jump\t// out\n        /* \"#utility.yul\":3177:3299   */\n    tag_116:\n        /* \"#utility.yul\":3250:3274   */\n      tag_176\n        /* \"#utility.yul\":3268:3273   */\n      dup2\n        /* \"#utility.yul\":3250:3274   */\n      tag_110\n      jump\t// in\n    tag_176:\n        /* \"#utility.yul\":3243:3248   */\n      dup2\n        /* \"#utility.yul\":3240:3275   */\n      eq\n        /* \"#utility.yul\":3230:3293   */\n      tag_177\n      jumpi\n        /* \"#utility.yul\":3289:3290   */\n      0x00\n        /* \"#utility.yul\":3286:3287   */\n      0x00\n        /* \"#utility.yul\":3279:3291   */\n      revert\n        /* \"#utility.yul\":3230:3293   */\n    tag_177:\n        /* \"#utility.yul\":3177:3299   */\n      pop\n      jump\t// out\n        /* \"#utility.yul\":3305:3444   */\n    tag_117:\n        /* \"#utility.yul\":3351:3356   */\n      0x00\n        /* \"#utility.yul\":3389:3395   */\n      dup2\n        /* \"#utility.yul\":3376:3396   */\n      calldataload\n        /* \"#utility.yul\":3367:3396   */\n      swap1\n      pop\n        /* \"#utility.yul\":3405:3438   */\n      tag_179\n        /* \"#utility.yul\":3432:3437   */\n      dup2\n        /* \"#utility.yul\":3405:3438   */\n      tag_116\n      jump\t// in\n    tag_179:\n        /* \"#utility.yul\":3305:3444   */\n      swap3\n      swap2\n      pop\n      pop\n      jump\t// out\n        /* \"#utility.yul\":3450:3779   */\n    tag_51:\n        /* \"#utility.yul\":3509:3515   */\n      0x00\n        /* \"#utility.yul\":3558:3560   */\n      0x20\n        /* \"#utility.yul\":3546:3555   */\n      dup3\n        /* \"#utility.yul\":3537:3544   */\n      dup5\n        /* \"#utility.yul\":3533:3556   */\n      sub\n        /* \"#utility.yul\":3529:3561   */\n      slt\n        /* \"#utility.yul\":3526:3645   */\n      iszero\n      tag_181\n      jumpi\n        /* \"#utility.yul\":3564:3643   */\n      tag_182\n      tag_104\n      jump\t// in\n    tag_182:\n        /* \"#utility.yul\":3526:3645   */\n    tag_181:\n        /* \"#utility.yul\":3684:3685   */\n      0x00\n        /* \"#utility.yul\":3709:3762   */\n      tag_183\n        /* \"#utility.yul\":3754:3761   */\n      dup5\n        /* \"#utility.yul\":3745:3751   */\n      dup3\n        /* \"#utility.yul\":3734:3743   */\n      dup6\n        /* \"#utility.yul\":3730:3752   */\n      add\n        /* \"#utility.yul\":3709:3762   */\n      tag_117\n      jump\t// in\n    tag_183:\n        /* \"#utility.yul\":3699:3762   */\n      swap2\n      pop\n        /* \"#utility.yul\":3655:3772   */\n      pop\n        /* \"#utility.yul\":3450:3779   */\n      swap3\n      swap2\n      pop\n      pop\n      jump\t// out\n        /* \"#utility.yul\":3785:3965   */\n    tag_118:\n        /* \"#utility.yul\":3833:3910   */\n      0x4e487b7100000000000000000000000000000000000000000000000000000000\n        /* \"#utility.yul\":3830:3831   */\n      0x00\n        /* \"#utility.yul\":3823:3911   */\n      mstore\n        /* \"#utility.yul\":3930:3934   */\n      0x11\n        /* \"#utility.yul\":3927:3928   */\n      0x04\n        /* \"#utility.yul\":3920:3935   */\n      mstore\n        /* \"#utility.yul\":3954:3958   */\n      0x24\n        /* \"#utility.yul\":3951:3952   */\n      0x00\n        /* \"#utility.yul\":3944:3959   */\n      revert\n        /* \"#utility.yul\":3971:4162   */\n    tag_61:\n        /* \"#utility.yul\":4011:4014   */\n      0x00\n        /* \"#utility.yul\":4030:4050   */\n      tag_186\n        /* \"#utility.yul\":4048:4049   */\n      dup3\n        /* \"#utility.yul\":4030:4050   */\n      tag_112\n      jump\t// in\n    tag_186:\n        /* \"#utility.yul\":4025:4050   */\n      swap2\n      pop\n        /* \"#utility.yul\":4064:4084   */\n      tag_187\n        /* \"#utility.yul\":4082:4083   */\n      dup4\n        /* \"#utility.yul\":4064:4084   */\n      tag_112\n      jump\t// in\n    tag_187:\n        /* \"#utility.yul\":4059:4084   */\n      swap3\n      pop\n        /* \"#utility.yul\":4107:4108   */\n      dup3\n        /* \"#utility.yul\":4104:4105   */\n      dup3\n        /* \"#utility.yul\":4100:4109   */\n      add\n        /* \"#utility.yul\":4093:4109   */\n      swap1\n      pop\n        /* \"#utility.yul\":4128:4131   */\n      dup1\n        /* \"#utility.yul\":4125:4126   */\n      dup3\n        /* \"#utility.yul\":4122:4132   */\n      gt\n        /* \"#utility.yul\":4119:4155   */\n      iszero\n      tag_188\n      jumpi\n        /* \"#utility.yul\":4135:4153   */\n      tag_189\n      tag_118\n      jump\t// in\n    tag_189:\n        /* \"#utility.yul\":4119:4155   */\n    tag_188:\n        /* \"#utility.yul\":3971:4162   */\n      swap3\n      swap2\n      pop\n      pop\n      jump\t// out\n        /* \"#utility.yul\":4168:4337   */\n    tag_119:\n        /* \"#utility.yul\":4252:4263   */\n      0x00\n        /* \"#utility.yul\":4286:4292   */\n      dup3\n        /* \"#utility.yul\":4281:4284   */\n      dup3\n        /* \"#utility.yul\":4274:4293   */\n      mstore\n        /* \"#utility.yul\":4326:4330   */\n      0x20\n        /* \"#utility.yul\":4321:4324   */\n      dup3\n        /* \"#utility.yul\":4317:4331   */\n      add\n        /* \"#utility.yul\":4302:4331   */\n      swap1\n      pop\n        /* \"#utility.yul\":4168:4337   */\n      swap3\n      swap2\n      pop\n      pop\n      jump\t// out\n        /* \"#utility.yul\":4343:4512   */\n    tag_120:\n        /* \"#utility.yul\":4483:4504   */\n      0x6f6e6c79206f776e65722063616e2063616c6c00000000000000000000000000\n        /* \"#utility.yul\":4479:4480   */\n      0x00\n        /* \"#utility.yul\":4471:4477   */\n      dup3\n        /* \"#utility.yul\":4467:4481   */\n      add\n        /* \"#utility.yul\":4460:4505   */\n      mstore\n        /* \"#utility.yul\":4343:4512   */\n      pop\n      jump\t// out\n        /* \"#utility.yul\":4518:4884   */\n    tag_121:\n        /* \"#utility.yul\":4660:4663   */\n      0x00\n        /* \"#utility.yul\":4681:4748   */\n      tag_193\n        /* \"#utility.yul\":4745:4747   */\n      0x13\n        /* \"#utility.yul\":4740:4743   */\n      dup4\n        /* \"#utility.yul\":4681:4748   */\n      tag_119\n      jump\t// in\n    tag_193:\n        /* \"#utility.yul\":4674:4748   */\n      swap2\n      pop\n        /* \"#utility.yul\":4757:4850   */\n      tag_194\n        /* \"#utility.yul\":4846:4849   */\n      dup3\n        /* \"#utility.yul\":4757:4850   */\n      tag_120\n      jump\t// in\n    tag_194:\n        /* \"#utility.yul\":4875:4877   */\n      0x20\n        /* \"#utility.yul\":4870:4873   */\n      dup3\n        /* \"#utility.yul\":4866:4878   */\n      add\n        /* \"#utility.yul\":4859:4878   */\n      swap1\n      pop\n        /* \"#utility.yul\":4518:4884   */\n      swap2\n      swap1\n      pop\n      jump\t// out\n        /* \"#utility.yul\":4890:5309   */\n    tag_66:\n        /* \"#utility.yul\":5056:5060   */\n      0x00\n        /* \"#utility.yul\":5094:5096   */\n      0x20\n        /* \"#utility.yul\":5083:5092   */\n      dup3\n        /* \"#utility.yul\":5079:5097   */\n      add\n        /* \"#utility.yul\":5071:5097   */\n      swap1\n      pop\n        /* \"#utility.yul\":5143:5152   */\n      dup2\n        /* \"#utility.yul\":5137:5141   */\n      dup2\n        /* \"#utility.yul\":5133:5153   */\n      sub\n        /* \"#utility.yul\":5129:5130   */\n      0x00\n        /* \"#utility.yul\":5118:5127   */\n      dup4\n        /* \"#utility.yul\":5114:5131   */\n      add\n        /* \"#utility.yul\":5107:5154   */\n      mstore\n        /* \"#utility.yul\":5171:5302   */\n      tag_196\n        /* \"#utility.yul\":5297:5301   */\n      dup2\n        /* \"#utility.yul\":5171:5302   */\n      tag_121\n      jump\t// in\n    tag_196:\n        /* \"#utility.yul\":5163:5302   */\n      swap1\n      pop\n        /* \"#utility.yul\":4890:5309   */\n      swap2\n      swap1\n      pop\n      jump\t// out\n        /* \"#utility.yul\":5315:5473   */\n    tag_122:\n        /* \"#utility.yul\":5455:5465   */\n      0x6e6f2066756e6473000000000000000000000000000000000000000000000000\n        /* \"#utility.yul\":5451:5452   */\n      0x00\n        /* \"#utility.yul\":5443:5449   */\n      dup3\n        /* \"#utility.yul\":5439:5453   */\n      add\n        /* \"#utility.yul\":5432:5466   */\n      mstore\n        /* \"#utility.yul\":5315:5473   */\n      pop\n      jump\t// out\n        /* \"#utility.yul\":5479:5844   */\n    tag_123:\n        /* \"#utility.yul\":5621:5624   */\n      0x00\n        /* \"#utility.yul\":5642:5708   */\n      tag_199\n        /* \"#utility.yul\":5706:5707   */\n      0x08\n        /* \"#utility.yul\":5701:5704   */\n      dup4\n        /* \"#utility.yul\":5642:5708   */\n      tag_119\n      jump\t// in\n    tag_199:\n        /* \"#utility.yul\":5635:5708   */\n      swap2\n      pop\n        /* \"#utility.yul\":5717:5810   */\n      tag_200\n        /* \"#utility.yul\":5806:5809   */\n      dup3\n        /* \"#utility.yul\":5717:5810   */\n      tag_122\n      jump\t// in\n    tag_200:\n        /* \"#utility.yul\":5835:5837   */\n      0x20\n        /* \"#utility.yul\":5830:5833   */\n      dup3\n        /* \"#utility.yul\":5826:5838   */\n      add\n        /* \"#utility.yul\":5819:5838   */\n      swap1\n      pop\n        /* \"#utility.yul\":5479:5844   */\n      swap2\n      swap1\n      pop\n      jump\t// out\n        /* \"#utility.yul\":5850:6269   */\n    tag_70:\n        /* \"#utility.yul\":6016:6020   */\n      0x00\n        /* \"#utility.yul\":6054:6056   */\n      0x20\n        /* \"#utility.yul\":6043:6052   */\n      dup3\n        /* \"#utility.yul\":6039:6057   */\n      add\n        /* \"#utility.yul\":6031:6057   */\n      swap1\n      pop\n        /* \"#utility.yul\":6103:6112   */\n      dup2\n        /* \"#utility.yul\":6097:6101   */\n      dup2\n        /* \"#utility.yul\":6093:6113   */\n      sub\n        /* \"#utility.yul\":6089:6090   */\n      0x00\n        /* \"#utility.yul\":6078:6087   */\n      dup4\n        /* \"#utility.yul\":6074:6091   */\n      add\n        /* \"#utility.yul\":6067:6114   */\n      mstore\n        /* \"#utility.yul\":6131:6262   */\n      tag_202\n        /* \"#utility.yul\":6257:6261   */\n      dup2\n        /* \"#utility.yul\":6131:6262   */\n      tag_123\n      jump\t// in\n    tag_202:\n        /* \"#utility.yul\":6123:6262   */\n      swap1\n      pop\n        /* \"#utility.yul\":5850:6269   */\n      swap2\n      swap1\n      pop\n      jump\t// out\n        /* \"#utility.yul\":6275:6422   */\n    tag_124:\n        /* \"#utility.yul\":6376:6387   */\n      0x00\n        /* \"#utility.yul\":6413:6416   */\n      dup2\n        /* \"#utility.yul\":6398:6416   */\n      swap1\n      pop\n        /* \"#utility.yul\":6275:6422   */\n      swap3\n      swap2\n      pop\n      pop\n      jump\t// out\n        /* \"#utility.yul\":6428:6542   */\n    tag_125:\n      pop\n      jump\t// out\n        /* \"#utility.yul\":6548:6946   */\n    tag_126:\n        /* \"#utility.yul\":6707:6710   */\n      0x00\n        /* \"#utility.yul\":6728:6811   */\n      tag_206\n        /* \"#utility.yul\":6809:6810   */\n      0x00\n        /* \"#utility.yul\":6804:6807   */\n      dup4\n        /* \"#utility.yul\":6728:6811   */\n      tag_124\n      jump\t// in\n    tag_206:\n        /* \"#utility.yul\":6721:6811   */\n      swap2\n      pop\n        /* \"#utility.yul\":6820:6913   */\n      tag_207\n        /* \"#utility.yul\":6909:6912   */\n      dup3\n        /* \"#utility.yul\":6820:6913   */\n      tag_125\n      jump\t// in\n    tag_207:\n        /* \"#utility.yul\":6938:6939   */\n      0x00\n        /* \"#utility.yul\":6933:6936   */\n      dup3\n        /* \"#utility.yul\":6929:6940   */\n      add\n        /* \"#utility.yul\":6922:6940   */\n      swap1\n      pop\n        /* \"#utility.yul\":6548:6946   */\n      swap2\n      swap1\n      pop\n      jump\t// out\n        /* \"#utility.yul\":6952:7331   */\n    tag_72:\n        /* \"#utility.yul\":7136:7139   */\n      0x00\n        /* \"#utility.yul\":7158:7305   */\n      tag_209\n        /* \"#utility.yul\":7301:7304   */\n      dup3\n        /* \"#utility.yul\":7158:7305   */\n      tag_126\n      jump\t// in\n    tag_209:\n        /* \"#utility.yul\":7151:7305   */\n      swap2\n      pop\n        /* \"#utility.yul\":7322:7325   */\n      dup2\n        /* \"#utility.yul\":7315:7325   */\n      swap1\n      pop\n        /* \"#utility.yul\":6952:7331   */\n      swap2\n      swap1\n      pop\n      jump\t// out\n        /* \"#utility.yul\":7337:7502   */\n    tag_127:\n        /* \"#utility.yul\":7477:7494   */\n      0x7472616e73666572206661696c65640000000000000000000000000000000000\n        /* \"#utility.yul\":7473:7474   */\n      0x00\n        /* \"#utility.yul\":7465:7471   */\n      dup3\n        /* \"#utility.yul\":7461:7475   */\n      add\n        /* \"#utility.yul\":7454:7495   */\n      mstore\n        /* \"#utility.yul\":7337:7502   */\n      pop\n      jump\t// out\n        /* \"#utility.yul\":7508:7874   */\n    tag_128:\n        /* \"#utility.yul\":7650:7653   */\n      0x00\n        /* \"#utility.yul\":7671:7738   */\n      tag_212\n        /* \"#utility.yul\":7735:7737   */\n      0x0f\n        /* \"#utility.yul\":7730:7733   */\n      dup4\n        /* \"#utility.yul\":7671:7738   */\n      tag_119\n      jump\t// in\n    tag_212:\n        /* \"#utility.yul\":7664:7738   */\n      swap2\n      pop\n        /* \"#utility.yul\":7747:7840   */\n      tag_213\n        /* \"#utility.yul\":7836:7839   */\n      dup3\n        /* \"#utility.yul\":7747:7840   */\n      tag_127\n      jump\t// in\n    tag_213:\n        /* \"#utility.yul\":7865:7867   */\n      0x20\n        /* \"#utility.yul\":7860:7863   */\n      dup3\n        /* \"#utility.yul\":7856:7868   */\n      add\n        /* \"#utility.yul\":7849:7868   */\n      swap1\n      pop\n        /* \"#utility.yul\":7508:7874   */\n      swap2\n      swap1\n      pop\n      jump\t// out\n        /* \"#utility.yul\":7880:8299   */\n    tag_78:\n        /* \"#utility.yul\":8046:8050   */\n      0x00\n        /* \"#utility.yul\":8084:8086   */\n      0x20\n        /* \"#utility.yul\":8073:8082   */\n      dup3\n        /* \"#utility.yul\":8069:8087   */\n      add\n        /* \"#utility.yul\":8061:8087   */\n      swap1\n      pop\n        /* \"#utility.yul\":8133:8142   */\n      dup2\n        /* \"#utility.yul\":8127:8131   */\n      dup2\n        /* \"#utility.yul\":8123:8143   */\n      sub\n        /* \"#utility.yul\":8119:8120   */\n      0x00\n        /* \"#utility.yul\":8108:8117   */\n      dup4\n        /* \"#utility.yul\":8104:8121   */\n      add\n        /* \"#utility.yul\":8097:8144   */\n      mstore\n        /* \"#utility.yul\":8161:8292   */\n      tag_215\n        /* \"#utility.yul\":8287:8291   */\n      dup2\n        /* \"#utility.yul\":8161:8292   */\n      tag_128\n      jump\t// in\n    tag_215:\n        /* \"#utility.yul\":8153:8292   */\n      swap1\n      pop\n        /* \"#utility.yul\":7880:8299   */\n      swap2\n      swap1\n      pop\n      jump\t// out\n        /* \"#utility.yul\":8305:8467   */\n    tag_129:\n        /* \"#utility.yul\":8445:8459   */\n      0x6f7574206f662072616e67650000000000000000000000000000000000000000\n        /* \"#utility.yul\":8441:8442   */\n      0x00\n        /* \"#utility.yul\":8433:8439   */\n      dup3\n        /* \"#utility.yul\":8429:8443   */\n      add\n        /* \"#utility.yul\":8422:8460   */\n      mstore\n        /* \"#utility.yul\":8305:8467   */\n      pop\n      jump\t// out\n        /* \"#utility.yul\":8473:8839   */\n    tag_130:\n        /* \"#utility.yul\":8615:8618   */\n      0x00\n        /* \"#utility.yul\":8636:8703   */\n      tag_218\n        /* \"#utility.yul\":8700:8702   */\n      0x0c\n        /* \"#utility.yul\":8695:8698   */\n      dup4\n        /* \"#utility.yul\":8636:8703   */\n      tag_119\n      jump\t// in\n    tag_218:\n        /* \"#utility.yul\":8629:8703   */\n      swap2\n      pop\n        /* \"#utility.yul\":8712:8805   */\n      tag_219\n        /* \"#utility.yul\":8801:8804   */\n      dup3\n        /* \"#utility.yul\":8712:8805   */\n      tag_129\n      jump\t// in\n    tag_219:\n        /* \"#utility.yul\":8830:8832   */\n      0x20\n        /* \"#utility.yul\":8825:8828   */\n      dup3\n        /* \"#utility.yul\":8821:8833   */\n      add\n        /* \"#utility.yul\":8814:8833   */\n      swap1\n      pop\n        /* \"#utility.yul\":8473:8839   */\n      swap2\n      swap1\n      pop\n      jump\t// out\n        /* \"#utility.yul\":8845:9264   */\n    tag_83:\n        /* \"#utility.yul\":9011:9015   */\n      0x00\n        /* \"#utility.yul\":9049:9051   */\n      0x20\n        /* \"#utility.yul\":9038:9047   */\n      dup3\n        /* \"#utility.yul\":9034:9052   */\n      add\n        /* \"#utility.yul\":9026:9052   */\n      swap1\n      pop\n        /* \"#utility.yul\":9098:9107   */\n      dup2\n        /* \"#utility.yul\":9092:9096   */\n      dup2\n        /* \"#utility.yul\":9088:9108   */\n      sub\n        /* \"#utility.yul\":9084:9085   */\n      0x00\n        /* \"#utility.yul\":9073:9082   */\n      dup4\n        /* \"#utility.yul\":9069:9086   */\n      add\n        /* \"#utility.yul\":9062:9109   */\n      mstore\n        /* \"#utility.yul\":9126:9257   */\n      tag_221\n        /* \"#utility.yul\":9252:9256   */\n      dup2\n        /* \"#utility.yul\":9126:9257   */\n      tag_130\n      jump\t// in\n    tag_221:\n        /* \"#utility.yul\":9118:9257   */\n      swap1\n      pop\n        /* \"#utility.yul\":8845:9264   */\n      swap2\n      swap1\n      pop\n      jump\t// out\n        /* \"#utility.yul\":9270:9450   */\n    tag_86:\n        /* \"#utility.yul\":9318:9395   */\n      0x4e487b7100000000000000000000000000000000000000000000000000000000\n        /* \"#utility.yul\":9315:9316   */\n      0x00\n        /* \"#utility.yul\":9308:9396   */\n      mstore\n        /* \"#utility.yul\":9415:9419   */\n      0x32\n        /* \"#utility.yul\":9412:9413   */\n      0x04\n        /* \"#utility.yul\":9405:9420   */\n      mstore\n        /* \"#utility.yul\":9439:9443   */\n      0x24\n        /* \"#utility.yul\":9436:9437   */\n      0x00\n        /* \"#utility.yul\":9429:9444   */\n      revert\n        /* \"#utility.yul\":9456:9620   */\n    tag_131:\n        /* \"#utility.yul\":9596:9612   */\n      0x73656e6420736f6d652043454c4f000000000000000000000000000000000000\n        /* \"#utility.yul\":9592:9593   */\n      0x00\n        /* \"#utility.yul\":9584:9590   */\n      dup3\n        /* \"#utility.yul\":9580:9594   */\n      add\n        /* \"#utility.yul\":9573:9613   */\n      mstore\n        /* \"#utility.yul\":9456:9620   */\n      pop\n      jump\t// out\n        /* \"#utility.yul\":9626:9992   */\n    tag_132:\n        /* \"#utility.yul\":9768:9771   */\n      0x00\n        /* \"#utility.yul\":9789:9856   */\n      tag_225\n        /* \"#utility.yul\":9853:9855   */\n      0x0e\n        /* \"#utility.yul\":9848:9851   */\n      dup4\n        /* \"#utility.yul\":9789:9856   */\n      tag_119\n      jump\t// in\n    tag_225:\n        /* \"#utility.yul\":9782:9856   */\n      swap2\n      pop\n        /* \"#utility.yul\":9865:9958   */\n      tag_226\n        /* \"#utility.yul\":9954:9957   */\n      dup3\n        /* \"#utility.yul\":9865:9958   */\n      tag_131\n      jump\t// in\n    tag_226:\n        /* \"#utility.yul\":9983:9985   */\n      0x20\n        /* \"#utility.yul\":9978:9981   */\n      dup3\n        /* \"#utility.yul\":9974:9986   */\n      add\n        /* \"#utility.yul\":9967:9986   */\n      swap1\n      pop\n        /* \"#utility.yul\":9626:9992   */\n      swap2\n      swap1\n      pop\n      jump\t// out\n        /* \"#utility.yul\":9998:10417   */\n    tag_94:\n        /* \"#utility.yul\":10164:10168   */\n      0x00\n        /* \"#utility.yul\":10202:10204   */\n      0x20\n        /* \"#utility.yul\":10191:10200   */\n      dup3\n        /* \"#utility.yul\":10187:10205   */\n      add\n        /* \"#utility.yul\":10179:10205   */\n      swap1\n      pop\n        /* \"#utility.yul\":10251:10260   */\n      dup2\n        /* \"#utility.yul\":10245:10249   */\n      dup2\n        /* \"#utility.yul\":10241:10261   */\n      sub\n        /* \"#utility.yul\":10237:10238   */\n      0x00\n        /* \"#utility.yul\":10226:10235   */\n      dup4\n        /* \"#utility.yul\":10222:10239   */\n      add\n        /* \"#utility.yul\":10215:10262   */\n      mstore\n        /* \"#utility.yul\":10279:10410   */\n      tag_228\n        /* \"#utility.yul\":10405:10409   */\n      dup2\n        /* \"#utility.yul\":10279:10410   */\n      tag_132\n      jump\t// in\n    tag_228:\n        /* \"#utility.yul\":10271:10410   */\n      swap1\n      pop\n        /* \"#utility.yul\":9998:10417   */\n      swap2\n      swap1\n      pop\n      jump\t// out\n        /* \"#utility.yul\":10423:10585   */\n    tag_133:\n        /* \"#utility.yul\":10563:10577   */\n      0x7a65726f20616464726573730000000000000000000000000000000000000000\n        /* \"#utility.yul\":10559:10560   */\n      0x00\n        /* \"#utility.yul\":10551:10557   */\n      dup3\n        /* \"#utility.yul\":10547:10561   */\n      add\n        /* \"#utility.yul\":10540:10578   */\n      mstore\n        /* \"#utility.yul\":10423:10585   */\n      pop\n      jump\t// out\n        /* \"#utility.yul\":10591:10957   */\n    tag_134:\n        /* \"#utility.yul\":10733:10736   */\n      0x00\n        /* \"#utility.yul\":10754:10821   */\n      tag_231\n        /* \"#utility.yul\":10818:10820   */\n      0x0c\n        /* \"#utility.yul\":10813:10816   */\n      dup4\n        /* \"#utility.yul\":10754:10821   */\n      tag_119\n      jump\t// in\n    tag_231:\n        /* \"#utility.yul\":10747:10821   */\n      swap2\n      pop\n        /* \"#utility.yul\":10830:10923   */\n      tag_232\n        /* \"#utility.yul\":10919:10922   */\n      dup3\n        /* \"#utility.yul\":10830:10923   */\n      tag_133\n      jump\t// in\n    tag_232:\n        /* \"#utility.yul\":10948:10950   */\n      0x20\n        /* \"#utility.yul\":10943:10946   */\n      dup3\n        /* \"#utility.yul\":10939:10951   */\n      add\n        /* \"#utility.yul\":10932:10951   */\n      swap1\n      pop\n        /* \"#utility.yul\":10591:10957   */\n      swap2\n      swap1\n      pop\n      jump\t// out\n        /* \"#utility.yul\":10963:11382   */\n    tag_102:\n        /* \"#utility.yul\":11129:11133   */\n      0x00\n        /* \"#utility.yul\":11167:11169   */\n      0x20\n        /* \"#utility.yul\":11156:11165   */\n      dup3\n        /* \"#utility.yul\":11152:11170   */\n      add\n        /* \"#utility.yul\":11144:11170   */\n      swap1\n      pop\n        /* \"#utility.yul\":11216:11225   */\n      dup2\n        /* \"#utility.yul\":11210:11214   */\n      dup2\n        /* \"#utility.yul\":11206:11226   */\n      sub\n        /* \"#utility.yul\":11202:11203   */\n      0x00\n        /* \"#utility.yul\":11191:11200   */\n      dup4\n        /* \"#utility.yul\":11187:11204   */\n      add\n        /* \"#utility.yul\":11180:11227   */\n      mstore\n        /* \"#utility.yul\":11244:11375   */\n      tag_234\n        /* \"#utility.yul\":11370:11374   */\n      dup2\n        /* \"#utility.yul\":11244:11375   */\n      tag_134\n      jump\t// in\n    tag_234:\n        /* \"#utility.yul\":11236:11375   */\n      swap1\n      pop\n        /* \"#utility.yul\":10963:11382   */\n      swap2\n      swap1\n      pop\n      jump\t// out\n\n    auxdata: 0xa2646970667358221220be215ede6d5039f1fc93b4e95cb12715afad1fe1addc037eb66f6b5aaeb5cde064736f6c634300081e0033\n}\n",
				"bytecode": {
					"linkReferences": {},
					"object": "6080604052348015600e575f5ffd5b50335f5f6101000a81548173ffffffffffffffffffffffffffffffffffffffff021916908373ffffffffffffffffffffffffffffffffffffffff160217905550610d9f8061005b5f395ff3fe60806040526004361061007e575f3560e01c8063e4fb51551161004d578063e4fb515514610169578063ed88c68e14610193578063f2fde38b1461019d578063fb690dcc146101c55761008f565b806351cff8d91461009b5780638da5cb5b146100c3578063bf6713f6146100ed578063d60659351461012b5761008f565b3661008f5761008d3334610201565b005b6100993334610201565b005b3480156100a6575f5ffd5b506100c160048036038101906100bc91906108a7565b610359565b005b3480156100ce575f5ffd5b506100d7610528565b6040516100e491906108f2565b60405180910390f35b3480156100f8575f5ffd5b50610113600480360381019061010e919061093e565b61054c565b60405161012293929190610978565b60405180910390f35b348015610136575f5ffd5b50610151600480360381019061014c919061093e565b610648565b60405161016093929190610978565b60405180910390f35b348015610174575f5ffd5b5061017d61069c565b60405161018a91906109ad565b60405180910390f35b61019b6106a8565b005b3480156101a8575f5ffd5b506101c360048036038101906101be91906109f0565b6106f6565b005b3480156101d0575f5ffd5b506101eb60048036038101906101e691906109f0565b610834565b6040516101f891906109ad565b60405180910390f35b600160405180606001604052808473ffffffffffffffffffffffffffffffffffffffff16815260200183815260200142815250908060018154018082558091505060019003905f5260205f2090600302015f909190919091505f820151815f015f6101000a81548173ffffffffffffffffffffffffffffffffffffffff021916908373ffffffffffffffffffffffffffffffffffffffff160217905550602082015181600101556040820151816002015550508060025f8473ffffffffffffffffffffffffffffffffffffffff1673ffffffffffffffffffffffffffffffffffffffff1681526020019081526020015f205f8282546103009190610a48565b925050819055508173ffffffffffffffffffffffffffffffffffffffff167f2a01595cddf097c90216094025db714da3f4e5bd8877b56ba86a24ecead8e5438260405161034d91906109ad565b60405180910390a25050565b5f5f9054906101000a900473ffffffffffffffffffffffffffffffffffffffff1673ffffffffffffffffffffffffffffffffffffffff163373ffffffffffffffffffffffffffffffffffffffff16146103e7576040517f08c379a00000000000000000000000000000000000000000000000000000000081526004016103de90610ad5565b60405180910390fd5b5f4790505f811161042d576040517f08c379a000000000000000000000000000000000000000000000000000000000815260040161042490610b3d565b60405180910390fd5b5f8273ffffffffffffffffffffffffffffffffffffffff168260405161045290610b88565b5f6040518083038185875af1925050503d805f811461048c576040519150601f19603f3d011682016040523d82523d5f602084013e610491565b606091505b50509050806104d5576040517f08c379a00000000000000000000000000000000000000000000000000000000081526004016104cc90610be6565b60405180910390fd5b8273ffffffffffffffffffffffffffffffffffffffff167f7084f5476618d8e60b11ef0d7d3f06914655adb8793e28ff7f018d4c76d505d58360405161051b91906109ad565b60405180910390a2505050565b5f5f9054906101000a900473ffffffffffffffffffffffffffffffffffffffff1681565b5f5f5f6001805490508410610596576040517f08c379a000000000000000000000000000000000000000000000000000000000815260040161058d90610c4e565b60405180910390fd5b5f600185815481106105ab576105aa610c6c565b5b905f5260205f2090600302016040518060600160405290815f82015f9054906101000a900473ffffffffffffffffffffffffffffffffffffffff1673ffffffffffffffffffffffffffffffffffffffff1673ffffffffffffffffffffffffffffffffffffffff168152602001600182015481526020016002820154815250509050805f015181602001518260400151935093509350509193909250565b60018181548110610657575f80fd5b905f5260205f2090600302015f91509050805f015f9054906101000a900473ffffffffffffffffffffffffffffffffffffffff16908060010154908060020154905083565b5f600180549050905090565b5f34116106ea576040517f08c379a00000000000000000000000000000000000000000000000000000000081526004016106e190610ce3565b60405180910390fd5b6106f43334610201565b565b5f5f9054906101000a900473ffffffffffffffffffffffffffffffffffffffff1673ffffffffffffffffffffffffffffffffffffffff163373ffffffffffffffffffffffffffffffffffffffff1614610784576040517f08c379a000000000000000000000000000000000000000000000000000000000815260040161077b90610ad5565b60405180910390fd5b5f73ffffffffffffffffffffffffffffffffffffffff168173ffffffffffffffffffffffffffffffffffffffff16036107f2576040517f08c379a00000000000000000000000000000000000000000000000000000000081526004016107e990610d4b565b60405180910390fd5b805f5f6101000a81548173ffffffffffffffffffffffffffffffffffffffff021916908373ffffffffffffffffffffffffffffffffffffffff16021790555050565b6002602052805f5260405f205f915090505481565b5f5ffd5b5f73ffffffffffffffffffffffffffffffffffffffff82169050919050565b5f6108768261084d565b9050919050565b6108868161086c565b8114610890575f5ffd5b50565b5f813590506108a18161087d565b92915050565b5f602082840312156108bc576108bb610849565b5b5f6108c984828501610893565b91505092915050565b5f6108dc8261084d565b9050919050565b6108ec816108d2565b82525050565b5f6020820190506109055f8301846108e3565b92915050565b5f819050919050565b61091d8161090b565b8114610927575f5ffd5b50565b5f8135905061093881610914565b92915050565b5f6020828403121561095357610952610849565b5b5f6109608482850161092a565b91505092915050565b6109728161090b565b82525050565b5f60608201905061098b5f8301866108e3565b6109986020830185610969565b6109a56040830184610969565b949350505050565b5f6020820190506109c05f830184610969565b92915050565b6109cf816108d2565b81146109d9575f5ffd5b50565b5f813590506109ea816109c6565b92915050565b5f60208284031215610a0557610a04610849565b5b5f610a12848285016109dc565b91505092915050565b7f4e487b71000000000000000000000000000000000000000000000000000000005f52601160045260245ffd5b5f610a528261090b565b9150610a5d8361090b565b9250828201905080821115610a7557610a74610a1b565b5b92915050565b5f82825260208201905092915050565b7f6f6e6c79206f776e65722063616e2063616c6c000000000000000000000000005f82015250565b5f610abf601383610a7b565b9150610aca82610a8b565b602082019050919050565b5f6020820190508181035f830152610aec81610ab3565b9050919050565b7f6e6f2066756e64730000000000000000000000000000000000000000000000005f82015250565b5f610b27600883610a7b565b9150610b3282610af3565b602082019050919050565b5f6020820190508181035f830152610b5481610b1b565b9050919050565b5f81905092915050565b50565b5f610b735f83610b5b565b9150610b7e82610b65565b5f82019050919050565b5f610b9282610b68565b9150819050919050565b7f7472616e73666572206661696c656400000000000000000000000000000000005f82015250565b5f610bd0600f83610a7b565b9150610bdb82610b9c565b602082019050919050565b5f6020820190508181035f830152610bfd81610bc4565b9050919050565b7f6f7574206f662072616e676500000000000000000000000000000000000000005f82015250565b5f610c38600c83610a7b565b9150610c4382610c04565b602082019050919050565b5f6020820190508181035f830152610c6581610c2c565b9050919050565b7f4e487b71000000000000000000000000000000000000000000000000000000005f52603260045260245ffd5b7f73656e6420736f6d652043454c4f0000000000000000000000000000000000005f82015250565b5f610ccd600e83610a7b565b9150610cd882610c99565b602082019050919050565b5f6020820190508181035f830152610cfa81610cc1565b9050919050565b7f7a65726f206164647265737300000000000000000000000000000000000000005f82015250565b5f610d35600c83610a7b565b9150610d4082610d01565b602082019050919050565b5f6020820190508181035f830152610d6281610d29565b905091905056fea2646970667358221220be215ede6d5039f1fc93b4e95cb12715afad1fe1addc037eb66f6b5aaeb5cde064736f6c634300081e0033",
					"opcodes": "PUSH1 0x80 PUSH1 0x40 MSTORE CALLVALUE DUP1 ISZERO PUSH1 0xE JUMPI PUSH0 PUSH0 REVERT JUMPDEST POP CALLER PUSH0 PUSH0 PUSH2 0x100 EXP DUP2 SLOAD DUP2 PUSH20 0xFFFFFFFFFFFFFFFFFFFFFFFFFFFFFFFFFFFFFFFF MUL NOT AND SWAP1 DUP4 PUSH20 0xFFFFFFFFFFFFFFFFFFFFFFFFFFFFFFFFFFFFFFFF AND MUL OR SWAP1 SSTORE POP PUSH2 0xD9F DUP1 PUSH2 0x5B PUSH0 CODECOPY PUSH0 RETURN INVALID PUSH1 0x80 PUSH1 0x40 MSTORE PUSH1 0x4 CALLDATASIZE LT PUSH2 0x7E JUMPI PUSH0 CALLDATALOAD PUSH1 0xE0 SHR DUP1 PUSH4 0xE4FB5155 GT PUSH2 0x4D JUMPI DUP1 PUSH4 0xE4FB5155 EQ PUSH2 0x169 JUMPI DUP1 PUSH4 0xED88C68E EQ PUSH2 0x193 JUMPI DUP1 PUSH4 0xF2FDE38B EQ PUSH2 0x19D JUMPI DUP1 PUSH4 0xFB690DCC EQ PUSH2 0x1C5 JUMPI PUSH2 0x8F JUMP JUMPDEST DUP1 PUSH4 0x51CFF8D9 EQ PUSH2 0x9B JUMPI DUP1 PUSH4 0x8DA5CB5B EQ PUSH2 0xC3 JUMPI DUP1 PUSH4 0xBF6713F6 EQ PUSH2 0xED JUMPI DUP1 PUSH4 0xD6065935 EQ PUSH2 0x12B JUMPI PUSH2 0x8F JUMP JUMPDEST CALLDATASIZE PUSH2 0x8F JUMPI PUSH2 0x8D CALLER CALLVALUE PUSH2 0x201 JUMP JUMPDEST STOP JUMPDEST PUSH2 0x99 CALLER CALLVALUE PUSH2 0x201 JUMP JUMPDEST STOP JUMPDEST CALLVALUE DUP1 ISZERO PUSH2 0xA6 JUMPI PUSH0 PUSH0 REVERT JUMPDEST POP PUSH2 0xC1 PUSH1 0x4 DUP1 CALLDATASIZE SUB DUP2 ADD SWAP1 PUSH2 0xBC SWAP2 SWAP1 PUSH2 0x8A7 JUMP JUMPDEST PUSH2 0x359 JUMP JUMPDEST STOP JUMPDEST CALLVALUE DUP1 ISZERO PUSH2 0xCE JUMPI PUSH0 PUSH0 REVERT JUMPDEST POP PUSH2 0xD7 PUSH2 0x528 JUMP JUMPDEST PUSH1 0x40 MLOAD PUSH2 0xE4 SWAP2 SWAP1 PUSH2 0x8F2 JUMP JUMPDEST PUSH1 0x40 MLOAD DUP1 SWAP2 SUB SWAP1 RETURN JUMPDEST CALLVALUE DUP1 ISZERO PUSH2 0xF8 JUMPI PUSH0 PUSH0 REVERT JUMPDEST POP PUSH2 0x113 PUSH1 0x4 DUP1 CALLDATASIZE SUB DUP2 ADD SWAP1 PUSH2 0x10E SWAP2 SWAP1 PUSH2 0x93E JUMP JUMPDEST PUSH2 0x54C JUMP JUMPDEST PUSH1 0x40 MLOAD PUSH2 0x122 SWAP4 SWAP3 SWAP2 SWAP1 PUSH2 0x978 JUMP JUMPDEST PUSH1 0x40 MLOAD DUP1 SWAP2 SUB SWAP1 RETURN JUMPDEST CALLVALUE DUP1 ISZERO PUSH2 0x136 JUMPI PUSH0 PUSH0 REVERT JUMPDEST POP PUSH2 0x151 PUSH1 0x4 DUP1 CALLDATASIZE SUB DUP2 ADD SWAP1 PUSH2 0x14C SWAP2 SWAP1 PUSH2 0x93E JUMP JUMPDEST PUSH2 0x648 JUMP JUMPDEST PUSH1 0x40 MLOAD PUSH2 0x160 SWAP4 SWAP3 SWAP2 SWAP1 PUSH2 0x978 JUMP JUMPDEST PUSH1 0x40 MLOAD DUP1 SWAP2 SUB SWAP1 RETURN JUMPDEST CALLVALUE DUP1 ISZERO PUSH2 0x174 JUMPI PUSH0 PUSH0 REVERT JUMPDEST POP PUSH2 0x17D PUSH2 0x69C JUMP JUMPDEST PUSH1 0x40 MLOAD PUSH2 0x18A SWAP2 SWAP1 PUSH2 0x9AD JUMP JUMPDEST PUSH1 0x40 MLOAD DUP1 SWAP2 SUB SWAP1 RETURN JUMPDEST PUSH2 0x19B PUSH2 0x6A8 JUMP JUMPDEST STOP JUMPDEST CALLVALUE DUP1 ISZERO PUSH2 0x1A8 JUMPI PUSH0 PUSH0 REVERT JUMPDEST POP PUSH2 0x1C3 PUSH1 0x4 DUP1 CALLDATASIZE SUB DUP2 ADD SWAP1 PUSH2 0x1BE SWAP2 SWAP1 PUSH2 0x9F0 JUMP JUMPDEST PUSH2 0x6F6 JUMP JUMPDEST STOP JUMPDEST CALLVALUE DUP1 ISZERO PUSH2 0x1D0 JUMPI PUSH0 PUSH0 REVERT JUMPDEST POP PUSH2 0x1EB PUSH1 0x4 DUP1 CALLDATASIZE SUB DUP2 ADD SWAP1 PUSH2 0x1E6 SWAP2 SWAP1 PUSH2 0x9F0 JUMP JUMPDEST PUSH2 0x834 JUMP JUMPDEST PUSH1 0x40 MLOAD PUSH2 0x1F8 SWAP2 SWAP1 PUSH2 0x9AD JUMP JUMPDEST PUSH1 0x40 MLOAD DUP1 SWAP2 SUB SWAP1 RETURN JUMPDEST PUSH1 0x1 PUSH1 0x40 MLOAD DUP1 PUSH1 0x60 ADD PUSH1 0x40 MSTORE DUP1 DUP5 PUSH20 0xFFFFFFFFFFFFFFFFFFFFFFFFFFFFFFFFFFFFFFFF AND DUP2 MSTORE PUSH1 0x20 ADD DUP4 DUP2 MSTORE PUSH1 0x20 ADD TIMESTAMP DUP2 MSTORE POP SWAP1 DUP1 PUSH1 0x1 DUP2 SLOAD ADD DUP1 DUP3 SSTORE DUP1 SWAP2 POP POP PUSH1 0x1 SWAP1 SUB SWAP1 PUSH0 MSTORE PUSH1 0x20 PUSH0 KECCAK256 SWAP1 PUSH1 0x3 MUL ADD PUSH0 SWAP1 SWAP2 SWAP1 SWAP2 SWAP1 SWAP2 POP PUSH0 DUP3 ADD MLOAD DUP2 PUSH0 ADD PUSH0 PUSH2 0x100 EXP DUP2 SLOAD DUP2 PUSH20 0xFFFFFFFFFFFFFFFFFFFFFFFFFFFFFFFFFFFFFFFF MUL NOT AND SWAP1 DUP4 PUSH20 0xFFFFFFFFFFFFFFFFFFFFFFFFFFFFFFFFFFFFFFFF AND MUL OR SWAP1 SSTORE POP PUSH1 0x20 DUP3 ADD MLOAD DUP2 PUSH1 0x1 ADD SSTORE PUSH1 0x40 DUP3 ADD MLOAD DUP2 PUSH1 0x2 ADD SSTORE POP POP DUP1 PUSH1 0x2 PUSH0 DUP5 PUSH20 0xFFFFFFFFFFFFFFFFFFFFFFFFFFFFFFFFFFFFFFFF AND PUSH20 0xFFFFFFFFFFFFFFFFFFFFFFFFFFFFFFFFFFFFFFFF AND DUP2 MSTORE PUSH1 0x20 ADD SWAP1 DUP2 MSTORE PUSH1 0x20 ADD PUSH0 KECCAK256 PUSH0 DUP3 DUP3 SLOAD PUSH2 0x300 SWAP2 SWAP1 PUSH2 0xA48 JUMP JUMPDEST SWAP3 POP POP DUP2 SWAP1 SSTORE POP DUP2 PUSH20 0xFFFFFFFFFFFFFFFFFFFFFFFFFFFFFFFFFFFFFFFF AND PUSH32 0x2A01595CDDF097C90216094025DB714DA3F4E5BD8877B56BA86A24ECEAD8E543 DUP3 PUSH1 0x40 MLOAD PUSH2 0x34D SWAP2 SWAP1 PUSH2 0x9AD JUMP JUMPDEST PUSH1 0x40 MLOAD DUP1 SWAP2 SUB SWAP1 LOG2 POP POP JUMP JUMPDEST PUSH0 PUSH0 SWAP1 SLOAD SWAP1 PUSH2 0x100 EXP SWAP1 DIV PUSH20 0xFFFFFFFFFFFFFFFFFFFFFFFFFFFFFFFFFFFFFFFF AND PUSH20 0xFFFFFFFFFFFFFFFFFFFFFFFFFFFFFFFFFFFFFFFF AND CALLER PUSH20 0xFFFFFFFFFFFFFFFFFFFFFFFFFFFFFFFFFFFFFFFF AND EQ PUSH2 0x3E7 JUMPI PUSH1 0x40 MLOAD PUSH32 0x8C379A000000000000000000000000000000000000000000000000000000000 DUP2 MSTORE PUSH1 0x4 ADD PUSH2 0x3DE SWAP1 PUSH2 0xAD5 JUMP JUMPDEST PUSH1 0x40 MLOAD DUP1 SWAP2 SUB SWAP1 REVERT JUMPDEST PUSH0 SELFBALANCE SWAP1 POP PUSH0 DUP2 GT PUSH2 0x42D JUMPI PUSH1 0x40 MLOAD PUSH32 0x8C379A000000000000000000000000000000000000000000000000000000000 DUP2 MSTORE PUSH1 0x4 ADD PUSH2 0x424 SWAP1 PUSH2 0xB3D JUMP JUMPDEST PUSH1 0x40 MLOAD DUP1 SWAP2 SUB SWAP1 REVERT JUMPDEST PUSH0 DUP3 PUSH20 0xFFFFFFFFFFFFFFFFFFFFFFFFFFFFFFFFFFFFFFFF AND DUP3 PUSH1 0x40 MLOAD PUSH2 0x452 SWAP1 PUSH2 0xB88 JUMP JUMPDEST PUSH0 PUSH1 0x40 MLOAD DUP1 DUP4 SUB DUP2 DUP6 DUP8 GAS CALL SWAP3 POP POP POP RETURNDATASIZE DUP1 PUSH0 DUP2 EQ PUSH2 0x48C JUMPI PUSH1 0x40 MLOAD SWAP2 POP PUSH1 0x1F NOT PUSH1 0x3F RETURNDATASIZE ADD AND DUP3 ADD PUSH1 0x40 MSTORE RETURNDATASIZE DUP3 MSTORE RETURNDATASIZE PUSH0 PUSH1 0x20 DUP5 ADD RETURNDATACOPY PUSH2 0x491 JUMP JUMPDEST PUSH1 0x60 SWAP2 POP JUMPDEST POP POP SWAP1 POP DUP1 PUSH2 0x4D5 JUMPI PUSH1 0x40 MLOAD PUSH32 0x8C379A000000000000000000000000000000000000000000000000000000000 DUP2 MSTORE PUSH1 0x4 ADD PUSH2 0x4CC SWAP1 PUSH2 0xBE6 JUMP JUMPDEST PUSH1 0x40 MLOAD DUP1 SWAP2 SUB SWAP1 REVERT JUMPDEST DUP3 PUSH20 0xFFFFFFFFFFFFFFFFFFFFFFFFFFFFFFFFFFFFFFFF AND PUSH32 0x7084F5476618D8E60B11EF0D7D3F06914655ADB8793E28FF7F018D4C76D505D5 DUP4 PUSH1 0x40 MLOAD PUSH2 0x51B SWAP2 SWAP1 PUSH2 0x9AD JUMP JUMPDEST PUSH1 0x40 MLOAD DUP1 SWAP2 SUB SWAP1 LOG2 POP POP POP JUMP JUMPDEST PUSH0 PUSH0 SWAP1 SLOAD SWAP1 PUSH2 0x100 EXP SWAP1 DIV PUSH20 0xFFFFFFFFFFFFFFFFFFFFFFFFFFFFFFFFFFFFFFFF AND DUP2 JUMP JUMPDEST PUSH0 PUSH0 PUSH0 PUSH1 0x1 DUP1 SLOAD SWAP1 POP DUP5 LT PUSH2 0x596 JUMPI PUSH1 0x40 MLOAD PUSH32 0x8C379A000000000000000000000000000000000000000000000000000000000 DUP2 MSTORE PUSH1 0x4 ADD PUSH2 0x58D SWAP1 PUSH2 0xC4E JUMP JUMPDEST PUSH1 0x40 MLOAD DUP1 SWAP2 SUB SWAP1 REVERT JUMPDEST PUSH0 PUSH1 0x1 DUP6 DUP2 SLOAD DUP2 LT PUSH2 0x5AB JUMPI PUSH2 0x5AA PUSH2 0xC6C JUMP JUMPDEST JUMPDEST SWAP1 PUSH0 MSTORE PUSH1 0x20 PUSH0 KECCAK256 SWAP1 PUSH1 0x3 MUL ADD PUSH1 0x40 MLOAD DUP1 PUSH1 0x60 ADD PUSH1 0x40 MSTORE SWAP1 DUP2 PUSH0 DUP3 ADD PUSH0 SWAP1 SLOAD SWAP1 PUSH2 0x100 EXP SWAP1 DIV PUSH20 0xFFFFFFFFFFFFFFFFFFFFFFFFFFFFFFFFFFFFFFFF AND PUSH20 0xFFFFFFFFFFFFFFFFFFFFFFFFFFFFFFFFFFFFFFFF AND PUSH20 0xFFFFFFFFFFFFFFFFFFFFFFFFFFFFFFFFFFFFFFFF AND DUP2 MSTORE PUSH1 0x20 ADD PUSH1 0x1 DUP3 ADD SLOAD DUP2 MSTORE PUSH1 0x20 ADD PUSH1 0x2 DUP3 ADD SLOAD DUP2 MSTORE POP POP SWAP1 POP DUP1 PUSH0 ADD MLOAD DUP2 PUSH1 0x20 ADD MLOAD DUP3 PUSH1 0x40 ADD MLOAD SWAP4 POP SWAP4 POP SWAP4 POP POP SWAP2 SWAP4 SWAP1 SWAP3 POP JUMP JUMPDEST PUSH1 0x1 DUP2 DUP2 SLOAD DUP2 LT PUSH2 0x657 JUMPI PUSH0 DUP1 REVERT JUMPDEST SWAP1 PUSH0 MSTORE PUSH1 0x20 PUSH0 KECCAK256 SWAP1 PUSH1 0x3 MUL ADD PUSH0 SWAP2 POP SWAP1 POP DUP1 PUSH0 ADD PUSH0 SWAP1 SLOAD SWAP1 PUSH2 0x100 EXP SWAP1 DIV PUSH20 0xFFFFFFFFFFFFFFFFFFFFFFFFFFFFFFFFFFFFFFFF AND SWAP1 DUP1 PUSH1 0x1 ADD SLOAD SWAP1 DUP1 PUSH1 0x2 ADD SLOAD SWAP1 POP DUP4 JUMP JUMPDEST PUSH0 PUSH1 0x1 DUP1 SLOAD SWAP1 POP SWAP1 POP SWAP1 JUMP JUMPDEST PUSH0 CALLVALUE GT PUSH2 0x6EA JUMPI PUSH1 0x40 MLOAD PUSH32 0x8C379A000000000000000000000000000000000000000000000000000000000 DUP2 MSTORE PUSH1 0x4 ADD PUSH2 0x6E1 SWAP1 PUSH2 0xCE3 JUMP JUMPDEST PUSH1 0x40 MLOAD DUP1 SWAP2 SUB SWAP1 REVERT JUMPDEST PUSH2 0x6F4 CALLER CALLVALUE PUSH2 0x201 JUMP JUMPDEST JUMP JUMPDEST PUSH0 PUSH0 SWAP1 SLOAD SWAP1 PUSH2 0x100 EXP SWAP1 DIV PUSH20 0xFFFFFFFFFFFFFFFFFFFFFFFFFFFFFFFFFFFFFFFF AND PUSH20 0xFFFFFFFFFFFFFFFFFFFFFFFFFFFFFFFFFFFFFFFF AND CALLER PUSH20 0xFFFFFFFFFFFFFFFFFFFFFFFFFFFFFFFFFFFFFFFF AND EQ PUSH2 0x784 JUMPI PUSH1 0x40 MLOAD PUSH32 0x8C379A000000000000000000000000000000000000000000000000000000000 DUP2 MSTORE PUSH1 0x4 ADD PUSH2 0x77B SWAP1 PUSH2 0xAD5 JUMP JUMPDEST PUSH1 0x40 MLOAD DUP1 SWAP2 SUB SWAP1 REVERT JUMPDEST PUSH0 PUSH20 0xFFFFFFFFFFFFFFFFFFFFFFFFFFFFFFFFFFFFFFFF AND DUP2 PUSH20 0xFFFFFFFFFFFFFFFFFFFFFFFFFFFFFFFFFFFFFFFF AND SUB PUSH2 0x7F2 JUMPI PUSH1 0x40 MLOAD PUSH32 0x8C379A000000000000000000000000000000000000000000000000000000000 DUP2 MSTORE PUSH1 0x4 ADD PUSH2 0x7E9 SWAP1 PUSH2 0xD4B JUMP JUMPDEST PUSH1 0x40 MLOAD DUP1 SWAP2 SUB SWAP1 REVERT JUMPDEST DUP1 PUSH0 PUSH0 PUSH2 0x100 EXP DUP2 SLOAD DUP2 PUSH20 0xFFFFFFFFFFFFFFFFFFFFFFFFFFFFFFFFFFFFFFFF MUL NOT AND SWAP1 DUP4 PUSH20 0xFFFFFFFFFFFFFFFFFFFFFFFFFFFFFFFFFFFFFFFF AND MUL OR SWAP1 SSTORE POP POP JUMP JUMPDEST PUSH1 0x2 PUSH1 0x20 MSTORE DUP1 PUSH0 MSTORE PUSH1 0x40 PUSH0 KECCAK256 PUSH0 SWAP2 POP SWAP1 POP SLOAD DUP2 JUMP JUMPDEST PUSH0 PUSH0 REVERT JUMPDEST PUSH0 PUSH20 0xFFFFFFFFFFFFFFFFFFFFFFFFFFFFFFFFFFFFFFFF DUP3 AND SWAP1 POP SWAP2 SWAP1 POP JUMP JUMPDEST PUSH0 PUSH2 0x876 DUP3 PUSH2 0x84D JUMP JUMPDEST SWAP1 POP SWAP2 SWAP1 POP JUMP JUMPDEST PUSH2 0x886 DUP2 PUSH2 0x86C JUMP JUMPDEST DUP2 EQ PUSH2 0x890 JUMPI PUSH0 PUSH0 REVERT JUMPDEST POP JUMP JUMPDEST PUSH0 DUP2 CALLDATALOAD SWAP1 POP PUSH2 0x8A1 DUP2 PUSH2 0x87D JUMP JUMPDEST SWAP3 SWAP2 POP POP JUMP JUMPDEST PUSH0 PUSH1 0x20 DUP3 DUP5 SUB SLT ISZERO PUSH2 0x8BC JUMPI PUSH2 0x8BB PUSH2 0x849 JUMP JUMPDEST JUMPDEST PUSH0 PUSH2 0x8C9 DUP5 DUP3 DUP6 ADD PUSH2 0x893 JUMP JUMPDEST SWAP2 POP POP SWAP3 SWAP2 POP POP JUMP JUMPDEST PUSH0 PUSH2 0x8DC DUP3 PUSH2 0x84D JUMP JUMPDEST SWAP1 POP SWAP2 SWAP1 POP JUMP JUMPDEST PUSH2 0x8EC DUP2 PUSH2 0x8D2 JUMP JUMPDEST DUP3 MSTORE POP POP JUMP JUMPDEST PUSH0 PUSH1 0x20 DUP3 ADD SWAP1 POP PUSH2 0x905 PUSH0 DUP4 ADD DUP5 PUSH2 0x8E3 JUMP JUMPDEST SWAP3 SWAP2 POP POP JUMP JUMPDEST PUSH0 DUP2 SWAP1 POP SWAP2 SWAP1 POP JUMP JUMPDEST PUSH2 0x91D DUP2 PUSH2 0x90B JUMP JUMPDEST DUP2 EQ PUSH2 0x927 JUMPI PUSH0 PUSH0 REVERT JUMPDEST POP JUMP JUMPDEST PUSH0 DUP2 CALLDATALOAD SWAP1 POP PUSH2 0x938 DUP2 PUSH2 0x914 JUMP JUMPDEST SWAP3 SWAP2 POP POP JUMP JUMPDEST PUSH0 PUSH1 0x20 DUP3 DUP5 SUB SLT ISZERO PUSH2 0x953 JUMPI PUSH2 0x952 PUSH2 0x849 JUMP JUMPDEST JUMPDEST PUSH0 PUSH2 0x960 DUP5 DUP3 DUP6 ADD PUSH2 0x92A JUMP JUMPDEST SWAP2 POP POP SWAP3 SWAP2 POP POP JUMP JUMPDEST PUSH2 0x972 DUP2 PUSH2 0x90B JUMP JUMPDEST DUP3 MSTORE POP POP JUMP JUMPDEST PUSH0 PUSH1 0x60 DUP3 ADD SWAP1 POP PUSH2 0x98B PUSH0 DUP4 ADD DUP7 PUSH2 0x8E3 JUMP JUMPDEST PUSH2 0x998 PUSH1 0x20 DUP4 ADD DUP6 PUSH2 0x969 JUMP JUMPDEST PUSH2 0x9A5 PUSH1 0x40 DUP4 ADD DUP5 PUSH2 0x969 JUMP JUMPDEST SWAP5 SWAP4 POP POP POP POP JUMP JUMPDEST PUSH0 PUSH1 0x20 DUP3 ADD SWAP1 POP PUSH2 0x9C0 PUSH0 DUP4 ADD DUP5 PUSH2 0x969 JUMP JUMPDEST SWAP3 SWAP2 POP POP JUMP JUMPDEST PUSH2 0x9CF DUP2 PUSH2 0x8D2 JUMP JUMPDEST DUP2 EQ PUSH2 0x9D9 JUMPI PUSH0 PUSH0 REVERT JUMPDEST POP JUMP JUMPDEST PUSH0 DUP2 CALLDATALOAD SWAP1 POP PUSH2 0x9EA DUP2 PUSH2 0x9C6 JUMP JUMPDEST SWAP3 SWAP2 POP POP JUMP JUMPDEST PUSH0 PUSH1 0x20 DUP3 DUP5 SUB SLT ISZERO PUSH2 0xA05 JUMPI PUSH2 0xA04 PUSH2 0x849 JUMP JUMPDEST JUMPDEST PUSH0 PUSH2 0xA12 DUP5 DUP3 DUP6 ADD PUSH2 0x9DC JUMP JUMPDEST SWAP2 POP POP SWAP3 SWAP2 POP POP JUMP JUMPDEST PUSH32 0x4E487B7100000000000000000000000000000000000000000000000000000000 PUSH0 MSTORE PUSH1 0x11 PUSH1 0x4 MSTORE PUSH1 0x24 PUSH0 REVERT JUMPDEST PUSH0 PUSH2 0xA52 DUP3 PUSH2 0x90B JUMP JUMPDEST SWAP2 POP PUSH2 0xA5D DUP4 PUSH2 0x90B JUMP JUMPDEST SWAP3 POP DUP3 DUP3 ADD SWAP1 POP DUP1 DUP3 GT ISZERO PUSH2 0xA75 JUMPI PUSH2 0xA74 PUSH2 0xA1B JUMP JUMPDEST JUMPDEST SWAP3 SWAP2 POP POP JUMP JUMPDEST PUSH0 DUP3 DUP3 MSTORE PUSH1 0x20 DUP3 ADD SWAP1 POP SWAP3 SWAP2 POP POP JUMP JUMPDEST PUSH32 0x6F6E6C79206F776E65722063616E2063616C6C00000000000000000000000000 PUSH0 DUP3 ADD MSTORE POP JUMP JUMPDEST PUSH0 PUSH2 0xABF PUSH1 0x13 DUP4 PUSH2 0xA7B JUMP JUMPDEST SWAP2 POP PUSH2 0xACA DUP3 PUSH2 0xA8B JUMP JUMPDEST PUSH1 0x20 DUP3 ADD SWAP1 POP SWAP2 SWAP1 POP JUMP JUMPDEST PUSH0 PUSH1 0x20 DUP3 ADD SWAP1 POP DUP2 DUP2 SUB PUSH0 DUP4 ADD MSTORE PUSH2 0xAEC DUP2 PUSH2 0xAB3 JUMP JUMPDEST SWAP1 POP SWAP2 SWAP1 POP JUMP JUMPDEST PUSH32 0x6E6F2066756E6473000000000000000000000000000000000000000000000000 PUSH0 DUP3 ADD MSTORE POP JUMP JUMPDEST PUSH0 PUSH2 0xB27 PUSH1 0x8 DUP4 PUSH2 0xA7B JUMP JUMPDEST SWAP2 POP PUSH2 0xB32 DUP3 PUSH2 0xAF3 JUMP JUMPDEST PUSH1 0x20 DUP3 ADD SWAP1 POP SWAP2 SWAP1 POP JUMP JUMPDEST PUSH0 PUSH1 0x20 DUP3 ADD SWAP1 POP DUP2 DUP2 SUB PUSH0 DUP4 ADD MSTORE PUSH2 0xB54 DUP2 PUSH2 0xB1B JUMP JUMPDEST SWAP1 POP SWAP2 SWAP1 POP JUMP JUMPDEST PUSH0 DUP2 SWAP1 POP SWAP3 SWAP2 POP POP JUMP JUMPDEST POP JUMP JUMPDEST PUSH0 PUSH2 0xB73 PUSH0 DUP4 PUSH2 0xB5B JUMP JUMPDEST SWAP2 POP PUSH2 0xB7E DUP3 PUSH2 0xB65 JUMP JUMPDEST PUSH0 DUP3 ADD SWAP1 POP SWAP2 SWAP1 POP JUMP JUMPDEST PUSH0 PUSH2 0xB92 DUP3 PUSH2 0xB68 JUMP JUMPDEST SWAP2 POP DUP2 SWAP1 POP SWAP2 SWAP1 POP JUMP JUMPDEST PUSH32 0x7472616E73666572206661696C65640000000000000000000000000000000000 PUSH0 DUP3 ADD MSTORE POP JUMP JUMPDEST PUSH0 PUSH2 0xBD0 PUSH1 0xF DUP4 PUSH2 0xA7B JUMP JUMPDEST SWAP2 POP PUSH2 0xBDB DUP3 PUSH2 0xB9C JUMP JUMPDEST PUSH1 0x20 DUP3 ADD SWAP1 POP SWAP2 SWAP1 POP JUMP JUMPDEST PUSH0 PUSH1 0x20 DUP3 ADD SWAP1 POP DUP2 DUP2 SUB PUSH0 DUP4 ADD MSTORE PUSH2 0xBFD DUP2 PUSH2 0xBC4 JUMP JUMPDEST SWAP1 POP SWAP2 SWAP1 POP JUMP JUMPDEST PUSH32 0x6F7574206F662072616E67650000000000000000000000000000000000000000 PUSH0 DUP3 ADD MSTORE POP JUMP JUMPDEST PUSH0 PUSH2 0xC38 PUSH1 0xC DUP4 PUSH2 0xA7B JUMP JUMPDEST SWAP2 POP PUSH2 0xC43 DUP3 PUSH2 0xC04 JUMP JUMPDEST PUSH1 0x20 DUP3 ADD SWAP1 POP SWAP2 SWAP1 POP JUMP JUMPDEST PUSH0 PUSH1 0x20 DUP3 ADD SWAP1 POP DUP2 DUP2 SUB PUSH0 DUP4 ADD MSTORE PUSH2 0xC65 DUP2 PUSH2 0xC2C JUMP JUMPDEST SWAP1 POP SWAP2 SWAP1 POP JUMP JUMPDEST PUSH32 0x4E487B7100000000000000000000000000000000000000000000000000000000 PUSH0 MSTORE PUSH1 0x32 PUSH1 0x4 MSTORE PUSH1 0x24 PUSH0 REVERT JUMPDEST PUSH32 0x73656E6420736F6D652043454C4F000000000000000000000000000000000000 PUSH0 DUP3 ADD MSTORE POP JUMP JUMPDEST PUSH0 PUSH2 0xCCD PUSH1 0xE DUP4 PUSH2 0xA7B JUMP JUMPDEST SWAP2 POP PUSH2 0xCD8 DUP3 PUSH2 0xC99 JUMP JUMPDEST PUSH1 0x20 DUP3 ADD SWAP1 POP SWAP2 SWAP1 POP JUMP JUMPDEST PUSH0 PUSH1 0x20 DUP3 ADD SWAP1 POP DUP2 DUP2 SUB PUSH0 DUP4 ADD MSTORE PUSH2 0xCFA DUP2 PUSH2 0xCC1 JUMP JUMPDEST SWAP1 POP SWAP2 SWAP1 POP JUMP JUMPDEST PUSH32 0x7A65726F20616464726573730000000000000000000000000000000000000000 PUSH0 DUP3 ADD MSTORE POP JUMP JUMPDEST PUSH0 PUSH2 0xD35 PUSH1 0xC DUP4 PUSH2 0xA7B JUMP JUMPDEST SWAP2 POP PUSH2 0xD40 DUP3 PUSH2 0xD01 JUMP JUMPDEST PUSH1 0x20 DUP3 ADD SWAP1 POP SWAP2 SWAP1 POP JUMP JUMPDEST PUSH0 PUSH1 0x20 DUP3 ADD SWAP1 POP DUP2 DUP2 SUB PUSH0 DUP4 ADD MSTORE PUSH2 0xD62 DUP2 PUSH2 0xD29 JUMP JUMPDEST SWAP1 POP SWAP2 SWAP1 POP JUMP INVALID LOG2 PUSH5 0x6970667358 0x22 SLT KECCAK256 0xBE 0x21 MCOPY 0xDE PUSH14 0x5039F1FC93B4E95CB12715AFAD1F RJUMPI 0xADDC SUB PUSH31 0xB66F6B5AAEB5CDE064736F6C634300081E0033000000000000000000000000 "
				},
				"gasEstimates": {
					"creation": {
						"codeDepositCost": "697400",
						"executionCost": "24990",
						"totalCost": "722390"
					},
					"external": {
						"": "infinite",
						"donate()": "infinite",
						"donated(address)": "2868",
						"getGift(uint256)": "infinite",
						"gifts(uint256)": "infinite",
						"owner()": "2530",
						"totalGifts()": "2440",
						"transferOwnership(address)": "26960",
						"withdraw(address)": "infinite"
					},
					"internal": {
						"_record(address,uint256)": "infinite"
					}
				},
				"methodIdentifiers": {
					"donate()": "ed88c68e",
					"donated(address)": "fb690dcc",
					"getGift(uint256)": "bf6713f6",
					"gifts(uint256)": "d6065935",
					"owner()": "8da5cb5b",
					"totalGifts()": "e4fb5155",
					"transferOwnership(address)": "f2fde38b",
					"withdraw(address)": "51cff8d9"
				}
			},
			"storageLayout": {
				"storage": [
					{
						"astId": 3,
						"contract": "contracts/Donation.sol:Donation",
						"label": "owner",
						"offset": 0,
						"slot": "0",
						"type": "t_address"
					},
					{
						"astId": 14,
						"contract": "contracts/Donation.sol:Donation",
						"label": "gifts",
						"offset": 0,
						"slot": "1",
						"type": "t_array(t_struct(Gift)10_storage)dyn_storage"
					},
					{
						"astId": 18,
						"contract": "contracts/Donation.sol:Donation",
						"label": "donated",
						"offset": 0,
						"slot": "2",
						"type": "t_mapping(t_address,t_uint256)"
					}
				],
				"types": {
					"t_address": {
						"encoding": "inplace",
						"label": "address",
						"numberOfBytes": "20"
					},
					"t_array(t_struct(Gift)10_storage)dyn_storage": {
						"base": "t_struct(Gift)10_storage",
						"encoding": "dynamic_array",
						"label": "struct Donation.Gift[]",
						"numberOfBytes": "32"
					},
					"t_mapping(t_address,t_uint256)": {
						"encoding": "mapping",
						"key": "t_address",
						"label": "mapping(address => uint256)",
						"numberOfBytes": "32",
						"value": "t_uint256"
					},
					"t_struct(Gift)10_storage": {
						"encoding": "inplace",
						"label": "struct Donation.Gift",
						"members": [
							{
								"astId": 5,
								"contract": "contracts/Donation.sol:Donation",
								"label": "donor",
								"offset": 0,
								"slot": "0",
								"type": "t_address"
							},
							{
								"astId": 7,
								"contract": "contracts/Donation.sol:Donation",
								"label": "amount",
								"offset": 0,
								"slot": "1",
								"type": "t_uint256"
							},
							{
								"astId": 9,
								"contract": "contracts/Donation.sol:Donation",
								"label": "timestamp",
								"offset": 0,
								"slot": "2",
								"type": "t_uint256"
							}
						],
						"numberOfBytes": "96"
					},
					"t_uint256": {
						"encoding": "inplace",
						"label": "uint256",
						"numberOfBytes": "32"
					}
				}
			},
			"userdoc": {
				"kind": "user",
				"methods": {},
				"version": 1
			}
		}
	}
}